{
  "contractName": "Addresses",
  "abi": [
    {
      "inputs": [],
      "name": "someAddress",
      "outputs": [
        {
          "internalType": "address",
          "name": "",
          "type": "address"
        }
      ],
      "stateMutability": "view",
      "type": "function"
    },
    {
      "inputs": [
        {
          "internalType": "address",
          "name": "_someAddress",
          "type": "address"
        }
      ],
      "name": "setSomeAddress",
      "outputs": [],
      "stateMutability": "nonpayable",
      "type": "function"
    },
    {
      "inputs": [],
      "name": "getAddressBalance",
      "outputs": [
        {
          "internalType": "uint256",
          "name": "",
          "type": "uint256"
        }
      ],
      "stateMutability": "view",
      "type": "function"
    }
  ],
  "bytecode": "0x608060405234801561000f575f80fd5b506102568061001d5f395ff3fe608060405234801561000f575f80fd5b506004361061003f575f3560e01c806318e5f16b1461004357806375eb2ad114610061578063be9bea9d1461007f575b5f80fd5b61004b61009b565b604051610058919061017d565b60405180910390f35b6100696100be565b60405161007691906101ae565b60405180910390f35b610099600480360381019061009491906101f5565b6100fc565b005b5f8054906101000a900473ffffffffffffffffffffffffffffffffffffffff1681565b5f805f9054906101000a900473ffffffffffffffffffffffffffffffffffffffff1673ffffffffffffffffffffffffffffffffffffffff1631905090565b805f806101000a81548173ffffffffffffffffffffffffffffffffffffffff021916908373ffffffffffffffffffffffffffffffffffffffff16021790555050565b5f73ffffffffffffffffffffffffffffffffffffffff82169050919050565b5f6101678261013e565b9050919050565b6101778161015d565b82525050565b5f6020820190506101905f83018461016e565b92915050565b5f819050919050565b6101a881610196565b82525050565b5f6020820190506101c15f83018461019f565b92915050565b5f80fd5b6101d48161015d565b81146101de575f80fd5b50565b5f813590506101ef816101cb565b92915050565b5f6020828403121561020a576102096101c7565b5b5f610217848285016101e1565b9150509291505056fea2646970667358221220a21fa90d7decaf16b2e027817e082a96708381e0573d41f8de99ba5234c8a1b264736f6c63430008150033",
  "immutableReferences": {},
  "source": "// SPDX-License-Identifier: SEE LICENSE IN LICENSE\r\npragma solidity ^0.8.14;\r\n\r\ncontract Addresses {\r\n  address public someAddress; // 0x0...0\r\n\r\n  function setSomeAddress(address _someAddress) public {\r\n    someAddress = _someAddress;\r\n  }\r\n\r\n  function getAddressBalance() public view returns(uint) {\r\n    return someAddress.balance;\r\n  }\r\n}",
  "sourcePath": "C:\\Users\\jung_\\Desktop\\Coding\\web3-projects\\web3-development-learning\\contracts\\section-three\\Addresses.sol",
  "compiler": {
    "name": "solc",
    "version": "0.8.21+commit.d9974bed.Emscripten.clang"
  },
  "schemaVersion": "3.4.16",
  "updatedAt": "2024-08-03T20:45:15.239Z",
  "devdoc": {
    "kind": "dev",
    "methods": {},
    "version": 1
  },
  "userdoc": {
    "kind": "user",
    "methods": {},
    "version": 1
  }
}