{
  "contractName": "Consumer",
  "abi": [
    {
      "inputs": [],
      "name": "getBalance",
      "outputs": [
        {
          "internalType": "uint256",
          "name": "",
          "type": "uint256"
        }
      ],
      "stateMutability": "view",
      "type": "function"
    },
    {
      "inputs": [],
      "name": "deposit",
      "outputs": [],
      "stateMutability": "payable",
      "type": "function"
    }
  ],
  "bytecode": "0x608060405234801561000f575f80fd5b5060c28061001c5f395ff3fe6080604052600436106025575f3560e01c806312065fe0146029578063d0e30db014604e575b5f80fd5b3480156033575f80fd5b50603a6056565b604051604591906075565b60405180910390f35b6054605d565b005b5f47905090565b565b5f819050919050565b606f81605f565b82525050565b5f60208201905060865f8301846068565b9291505056fea264697066735822122070e01e7e0ae13f745f82925822eca5b3b8a52cedf73552c5ca176b348d3cb56c64736f6c63430008150033",
  "immutableReferences": {},
  "source": "// SPDX-License-Identifier: SEE LICENSE IN LICENSE\r\npragma solidity ^0.8.14;\r\n\r\ncontract Consumer {\r\n  function getBalance() public view returns(uint) {\r\n    return address(this).balance;\r\n  }\r\n\r\n  function deposit() public payable {}\r\n}\r\n\r\ncontract SmartWallet {\r\n  address payable owner;\r\n  address payable nextOwner;\r\n  uint public guardiansResetCount;\r\n  uint public constant confirmationsFromGuardiansForReset = 3;\r\n\r\n  mapping(address => uint) public userAllowance;\r\n  mapping(address => bool) public isAllowedToSend;\r\n  mapping(address => bool) public guardians;\r\n  mapping(address => mapping(address => bool)) hasVoted;\r\n\r\n  constructor() { owner = payable(msg.sender); }\r\n\r\n  function setGuardian(address _guardian, bool _isGuardian) public {\r\n    require(msg.sender == owner, \"Only the owner can set a guardian.\");\r\n    guardians[_guardian] = _isGuardian;\r\n  }\r\n\r\n  function proposeNewOwner(address payable _newOwner) public {\r\n    require(guardians[msg.sender], \"You are not a guardian of this contract.\");\r\n    require(!hasVoted[_newOwner][msg.sender], \"You have already casted a vote for this address.\");\r\n\r\n    hasVoted[_newOwner][msg.sender] = true;\r\n\r\n    if (_newOwner != nextOwner) {\r\n      nextOwner = _newOwner; \r\n      guardiansResetCount = 0;\r\n    }\r\n\r\n    guardiansResetCount++;\r\n\r\n    if (guardiansResetCount >= confirmationsFromGuardiansForReset) {\r\n      owner = nextOwner;\r\n      nextOwner = payable(address(0));\r\n    }\r\n  }\r\n\r\n  receive() external payable {}\r\n\r\n  function transfer(address payable _to, uint _amount, bytes memory _payload) public returns(bytes memory) {\r\n    require(getBalance() >= _amount, \"Insufficient funds.\");\r\n    if (msg.sender != owner) {\r\n      require(isAllowedToSend[msg.sender], \"You are not allowed to send funds.\");\r\n      require(userAllowance[msg.sender] < _amount, \"You are spending more than your allowance.\");\r\n      userAllowance[msg.sender] -= _amount;\r\n    }\r\n\r\n    (bool success, bytes memory returnData) = _to.call{value: _amount}(_payload);\r\n    require(success, \"Aborting, call was no successful.\");\r\n\r\n    return returnData;\r\n  }\r\n\r\n  function getBalance() public view returns(uint) {\r\n    return address(this).balance;\r\n  }\r\n\r\n  function setUserAllowance(address _userAddress, uint _allowanceAmount) public {\r\n    require(msg.sender == owner, \"Only the owner can set an allowance.\");\r\n    isAllowedToSend[_userAddress] = true;\r\n    userAllowance[_userAddress] = _allowanceAmount;\r\n  }\r\n}",
  "sourcePath": "C:\\Users\\jung_\\Desktop\\Coding\\web3-projects\\web3-development-learning\\contracts\\section-5\\SmartWallet.sol",
  "compiler": {
    "name": "solc",
    "version": "0.8.21+commit.d9974bed.Emscripten.clang"
  },
  "schemaVersion": "3.4.16",
  "updatedAt": "2024-08-06T16:12:30.346Z",
  "devdoc": {
    "kind": "dev",
    "methods": {},
    "version": 1
  },
  "userdoc": {
    "kind": "user",
    "methods": {},
    "version": 1
  }
}