{
  "contractName": "ContractOne",
  "abi": [
    {
      "inputs": [
        {
          "internalType": "address",
          "name": "",
          "type": "address"
        }
      ],
      "name": "addressBalances",
      "outputs": [
        {
          "internalType": "uint256",
          "name": "",
          "type": "uint256"
        }
      ],
      "stateMutability": "view",
      "type": "function"
    },
    {
      "inputs": [],
      "name": "deposit",
      "outputs": [],
      "stateMutability": "payable",
      "type": "function"
    }
  ],
  "bytecode": "0x608060405234801561000f575f80fd5b5061022a8061001d5f395ff3fe608060405260043610610028575f3560e01c806379fc36821461002c578063d0e30db014610068575b5f80fd5b348015610037575f80fd5b50610052600480360381019061004d9190610138565b610072565b60405161005f919061017b565b60405180910390f35b610070610086565b005b5f602052805f5260405f205f915090505481565b345f803373ffffffffffffffffffffffffffffffffffffffff1673ffffffffffffffffffffffffffffffffffffffff1681526020019081526020015f205f8282546100d191906101c1565b92505081905550565b5f80fd5b5f73ffffffffffffffffffffffffffffffffffffffff82169050919050565b5f610107826100de565b9050919050565b610117816100fd565b8114610121575f80fd5b50565b5f813590506101328161010e565b92915050565b5f6020828403121561014d5761014c6100da565b5b5f61015a84828501610124565b91505092915050565b5f819050919050565b61017581610163565b82525050565b5f60208201905061018e5f83018461016c565b92915050565b7f4e487b71000000000000000000000000000000000000000000000000000000005f52601160045260245ffd5b5f6101cb82610163565b91506101d683610163565b92508282019050808211156101ee576101ed610194565b5b9291505056fea26469706673582212203cd0b2a24187e81131fdef3a9f48e02990faf4e801ba666f2bf11a45011be65e64736f6c63430008150033",
  "immutableReferences": {},
  "source": "// SPDX-License-Identifier: SEE LICENSE IN LICENSE\r\npragma solidity ^0.8.14;\r\n\r\ncontract ContractOne {\r\n  mapping (address => uint) public addressBalances;\r\n\r\n  function deposit() public payable {\r\n    addressBalances[msg.sender] += msg.value;\r\n  }\r\n}\r\n\r\ncontract ContractTwo {\r\n  receive() external payable {} \r\n\r\n  function depositContractOne(address _contractOne) public {\r\n    bytes memory payload = abi.encodeWithSignature(\"deposit()\");\r\n    (bool success, ) = _contractOne.call{value: 10, gas: 100000}(payload);\r\n    require(success, \"Contract call failed.\");\r\n  }\r\n}\r\n\r\n",
  "sourcePath": "C:\\Users\\jung_\\Desktop\\Coding\\web3-projects\\web3-development-learning\\contracts\\section-5\\ContactCall.sol",
  "compiler": {
    "name": "solc",
    "version": "0.8.21+commit.d9974bed.Emscripten.clang"
  },
  "schemaVersion": "3.4.16",
  "updatedAt": "2024-08-06T16:12:30.334Z",
  "devdoc": {
    "kind": "dev",
    "methods": {},
    "version": 1
  },
  "userdoc": {
    "kind": "user",
    "methods": {},
    "version": 1
  }
}