{
  "contractName": "ContractTwo",
  "abi": [
    {
      "stateMutability": "payable",
      "type": "receive"
    },
    {
      "inputs": [
        {
          "internalType": "address",
          "name": "_contractOne",
          "type": "address"
        }
      ],
      "name": "depositContractOne",
      "outputs": [],
      "stateMutability": "nonpayable",
      "type": "function"
    }
  ],
  "bytecode": "0x608060405234801561000f575f80fd5b506103498061001d5f395ff3fe608060405260043610610021575f3560e01c8063b68d39e41461002c57610028565b3661002857005b5f80fd5b348015610037575f80fd5b50610052600480360381019061004d91906101ee565b610054565b005b5f6040516024016040516020818303038152906040527fd0e30db0000000000000000000000000000000000000000000000000000000007bffffffffffffffffffffffffffffffffffffffffffffffffffffffff19166020820180517bffffffffffffffffffffffffffffffffffffffffffffffffffffffff838183161783525050505090505f8273ffffffffffffffffffffffffffffffffffffffff16600a620186a090846040516101079190610285565b5f60405180830381858888f193505050503d805f8114610142576040519150601f19603f3d011682016040523d82523d5f602084013e610147565b606091505b505090508061018b576040517f08c379a0000000000000000000000000000000000000000000000000000000008152600401610182906102f5565b60405180910390fd5b505050565b5f80fd5b5f73ffffffffffffffffffffffffffffffffffffffff82169050919050565b5f6101bd82610194565b9050919050565b6101cd816101b3565b81146101d7575f80fd5b50565b5f813590506101e8816101c4565b92915050565b5f6020828403121561020357610202610190565b5b5f610210848285016101da565b91505092915050565b5f81519050919050565b5f81905092915050565b5f5b8381101561024a57808201518184015260208101905061022f565b5f8484015250505050565b5f61025f82610219565b6102698185610223565b935061027981856020860161022d565b80840191505092915050565b5f6102908284610255565b915081905092915050565b5f82825260208201905092915050565b7f436f6e74726163742063616c6c206661696c65642e00000000000000000000005f82015250565b5f6102df60158361029b565b91506102ea826102ab565b602082019050919050565b5f6020820190508181035f83015261030c816102d3565b905091905056fea26469706673582212200ffc4b67533e00ee33417fb5b102e07794f52d4f773a26eb4e89ee0f0fa187fa64736f6c63430008150033",
  "immutableReferences": {},
  "source": "// SPDX-License-Identifier: SEE LICENSE IN LICENSE\r\npragma solidity ^0.8.14;\r\n\r\ncontract ContractOne {\r\n  mapping (address => uint) public addressBalances;\r\n\r\n  function deposit() public payable {\r\n    addressBalances[msg.sender] += msg.value;\r\n  }\r\n}\r\n\r\ncontract ContractTwo {\r\n  receive() external payable {} \r\n\r\n  function depositContractOne(address _contractOne) public {\r\n    bytes memory payload = abi.encodeWithSignature(\"deposit()\");\r\n    (bool success, ) = _contractOne.call{value: 10, gas: 100000}(payload);\r\n    require(success, \"Contract call failed.\");\r\n  }\r\n}\r\n\r\n",
  "sourcePath": "C:\\Users\\jung_\\Desktop\\Coding\\web3-projects\\web3-development-learning\\contracts\\section-5\\ContactCall.sol",
  "compiler": {
    "name": "solc",
    "version": "0.8.21+commit.d9974bed.Emscripten.clang"
  },
  "schemaVersion": "3.4.16",
  "updatedAt": "2024-08-05T19:35:25.002Z",
  "devdoc": {
    "kind": "dev",
    "methods": {},
    "version": 1
  },
  "userdoc": {
    "kind": "user",
    "methods": {},
    "version": 1
  }
}