{
  "contractName": "Event",
  "abi": [
    {
      "inputs": [],
      "stateMutability": "nonpayable",
      "type": "constructor"
    },
    {
      "anonymous": false,
      "inputs": [
        {
          "indexed": true,
          "internalType": "address",
          "name": "_from",
          "type": "address"
        },
        {
          "indexed": true,
          "internalType": "address",
          "name": "_to",
          "type": "address"
        },
        {
          "indexed": false,
          "internalType": "uint256",
          "name": "_amount",
          "type": "uint256"
        }
      ],
      "name": "TokensSent",
      "type": "event"
    },
    {
      "inputs": [
        {
          "internalType": "address",
          "name": "",
          "type": "address"
        }
      ],
      "name": "tokenBalance",
      "outputs": [
        {
          "internalType": "uint256",
          "name": "",
          "type": "uint256"
        }
      ],
      "stateMutability": "view",
      "type": "function",
      "constant": true
    },
    {
      "inputs": [
        {
          "internalType": "address",
          "name": "_to",
          "type": "address"
        },
        {
          "internalType": "uint256",
          "name": "_amount",
          "type": "uint256"
        }
      ],
      "name": "sendToken",
      "outputs": [
        {
          "internalType": "bool",
          "name": "",
          "type": "bool"
        }
      ],
      "stateMutability": "nonpayable",
      "type": "function"
    },
    {
      "inputs": [
        {
          "internalType": "address",
          "name": "_user",
          "type": "address"
        }
      ],
      "name": "getTokenBalance",
      "outputs": [
        {
          "internalType": "uint256",
          "name": "",
          "type": "uint256"
        }
      ],
      "stateMutability": "view",
      "type": "function",
      "constant": true
    }
  ],
  "bytecode": "0x608060405234801561000f575f80fd5b5060645f803373ffffffffffffffffffffffffffffffffffffffff1673ffffffffffffffffffffffffffffffffffffffff1681526020019081526020015f20819055506105558061005f5f395ff3fe608060405234801561000f575f80fd5b506004361061003f575f3560e01c80633aecd0e314610043578063412664ae14610073578063eedc966a146100a3575b5f80fd5b61005d6004803603810190610058919061031d565b6100d3565b60405161006a9190610360565b60405180910390f35b61008d600480360381019061008891906103a3565b610118565b60405161009a91906103fb565b60405180910390f35b6100bd60048036038101906100b8919061031d565b6102ab565b6040516100ca9190610360565b60405180910390f35b5f805f8373ffffffffffffffffffffffffffffffffffffffff1673ffffffffffffffffffffffffffffffffffffffff1681526020019081526020015f20549050919050565b5f815f803373ffffffffffffffffffffffffffffffffffffffff1673ffffffffffffffffffffffffffffffffffffffff1681526020019081526020015f20541015610198576040517f08c379a000000000000000000000000000000000000000000000000000000000815260040161018f9061046e565b60405180910390fd5b815f803373ffffffffffffffffffffffffffffffffffffffff1673ffffffffffffffffffffffffffffffffffffffff1681526020019081526020015f205f8282546101e391906104b9565b92505081905550815f808573ffffffffffffffffffffffffffffffffffffffff1673ffffffffffffffffffffffffffffffffffffffff1681526020019081526020015f205f82825461023591906104ec565b925050819055508273ffffffffffffffffffffffffffffffffffffffff163373ffffffffffffffffffffffffffffffffffffffff167fe607861baff3d292b19188affe88c1a72bdcb69d3015f18bb2cd0bf5349cc3e1846040516102999190610360565b60405180910390a36001905092915050565b5f602052805f5260405f205f915090505481565b5f80fd5b5f73ffffffffffffffffffffffffffffffffffffffff82169050919050565b5f6102ec826102c3565b9050919050565b6102fc816102e2565b8114610306575f80fd5b50565b5f81359050610317816102f3565b92915050565b5f60208284031215610332576103316102bf565b5b5f61033f84828501610309565b91505092915050565b5f819050919050565b61035a81610348565b82525050565b5f6020820190506103735f830184610351565b92915050565b61038281610348565b811461038c575f80fd5b50565b5f8135905061039d81610379565b92915050565b5f80604083850312156103b9576103b86102bf565b5b5f6103c685828601610309565b92505060206103d78582860161038f565b9150509250929050565b5f8115159050919050565b6103f5816103e1565b82525050565b5f60208201905061040e5f8301846103ec565b92915050565b5f82825260208201905092915050565b7f4e6f7420656e6f75676820746f6b656e732e00000000000000000000000000005f82015250565b5f610458601283610414565b915061046382610424565b602082019050919050565b5f6020820190508181035f8301526104858161044c565b9050919050565b7f4e487b71000000000000000000000000000000000000000000000000000000005f52601160045260245ffd5b5f6104c382610348565b91506104ce83610348565b92508282039050818111156104e6576104e561048c565b5b92915050565b5f6104f682610348565b915061050183610348565b92508282019050808211156105195761051861048c565b5b9291505056fea26469706673582212205977c73dfb53eeb603393c683ad1b5216895f506a5b1a5edc82b9746d289e94764736f6c63430008150033",
  "immutableReferences": {},
  "source": "// SPDX-License-Identifier: SEE LICENSE IN LICENSE\r\npragma solidity ^0.8.14;\r\n\r\ncontract Event {\r\n  mapping(address => uint) public tokenBalance;\r\n\r\n  event TokensSent(address indexed _from, address indexed _to, uint _amount);\r\n\r\n  constructor() {\r\n    tokenBalance[msg.sender] = 100;\r\n  }\r\n\r\n  function sendToken(address _to, uint _amount) public returns(bool) {\r\n    require(tokenBalance[msg.sender] >= _amount, \"Not enough tokens.\");\r\n    tokenBalance[msg.sender] -= _amount;\r\n    tokenBalance[_to] += _amount;\r\n\r\n    emit TokensSent(msg.sender, _to, _amount);\r\n\r\n    return true;\r\n  }\r\n\r\n  function getTokenBalance(address _user) public view returns(uint) {\r\n    return tokenBalance[_user];\r\n  }\r\n}",
  "sourcePath": "C:\\Users\\jung_\\Desktop\\Coding\\web3-projects\\web3-development-learning\\contracts\\section-6\\Event.sol",
  "compiler": {
    "name": "solc",
    "version": "0.8.21+commit.d9974bed.Emscripten.clang"
  },
  "schemaVersion": "3.4.16",
  "updatedAt": "2024-08-05T19:35:26.026Z",
  "networkType": "ethereum",
  "devdoc": {
    "kind": "dev",
    "methods": {},
    "version": 1
  },
  "userdoc": {
    "kind": "user",
    "methods": {},
    "version": 1
  }
}