{
  "contractName": "ExampleStrings",
  "abi": [
    {
      "inputs": [],
      "name": "myString",
      "outputs": [
        {
          "internalType": "string",
          "name": "",
          "type": "string"
        }
      ],
      "stateMutability": "view",
      "type": "function",
      "constant": true
    },
    {
      "inputs": [
        {
          "internalType": "string",
          "name": "_myString",
          "type": "string"
        }
      ],
      "name": "setMyString",
      "outputs": [],
      "stateMutability": "nonpayable",
      "type": "function"
    },
    {
      "inputs": [
        {
          "internalType": "string",
          "name": "_stringOne",
          "type": "string"
        },
        {
          "internalType": "string",
          "name": "_stringTwo",
          "type": "string"
        }
      ],
      "name": "compareTwoStrings",
      "outputs": [
        {
          "internalType": "bool",
          "name": "",
          "type": "bool"
        }
      ],
      "stateMutability": "pure",
      "type": "function",
      "constant": true
    }
  ],
  "bytecode": "0x60806040526040518060400160405280600b81526020017f68656c6c6f20776f726c640000000000000000000000000000000000000000008152505f9081620000499190620002c1565b5034801562000056575f80fd5b50620003a5565b5f81519050919050565b7f4e487b71000000000000000000000000000000000000000000000000000000005f52604160045260245ffd5b7f4e487b71000000000000000000000000000000000000000000000000000000005f52602260045260245ffd5b5f6002820490506001821680620000d957607f821691505b602082108103620000ef57620000ee62000094565b5b50919050565b5f819050815f5260205f209050919050565b5f6020601f8301049050919050565b5f82821b905092915050565b5f60088302620001537fffffffffffffffffffffffffffffffffffffffffffffffffffffffffffffffff8262000116565b6200015f868362000116565b95508019841693508086168417925050509392505050565b5f819050919050565b5f819050919050565b5f620001a9620001a36200019d8462000177565b62000180565b62000177565b9050919050565b5f819050919050565b620001c48362000189565b620001dc620001d382620001b0565b84845462000122565b825550505050565b5f90565b620001f2620001e4565b620001ff818484620001b9565b505050565b5b8181101562000226576200021a5f82620001e8565b60018101905062000205565b5050565b601f82111562000275576200023f81620000f5565b6200024a8462000107565b810160208510156200025a578190505b62000272620002698562000107565b83018262000204565b50505b505050565b5f82821c905092915050565b5f620002975f19846008026200027a565b1980831691505092915050565b5f620002b1838362000286565b9150826002028217905092915050565b620002cc826200005d565b67ffffffffffffffff811115620002e857620002e762000067565b5b620002f48254620000c1565b620003018282856200022a565b5f60209050601f83116001811462000337575f841562000322578287015190505b6200032e8582620002a4565b8655506200039d565b601f1984166200034786620000f5565b5f5b82811015620003705784890151825560018201915060208501945060208101905062000349565b868310156200039057848901516200038c601f89168262000286565b8355505b6001600288020188555050505b505050505050565b6107d180620003b35f395ff3fe608060405234801561000f575f80fd5b506004361061003f575f3560e01c8063492bfa18146100435780638218056814610061578063ef01a9a81461007d575b5f80fd5b61004b6100ad565b604051610058919061022c565b60405180910390f35b61007b60048036038101906100769190610389565b610138565b005b610097600480360381019061009291906103d0565b61014a565b6040516100a49190610460565b60405180910390f35b5f80546100b9906104a6565b80601f01602080910402602001604051908101604052809291908181526020018280546100e5906104a6565b80156101305780601f1061010757610100808354040283529160200191610130565b820191905f5260205f20905b81548152906001019060200180831161011357829003601f168201915b505050505081565b805f9081610146919061067c565b5050565b5f8160405160200161015c9190610785565b60405160208183030381529060405280519060200120836040516020016101839190610785565b6040516020818303038152906040528051906020012014905092915050565b5f81519050919050565b5f82825260208201905092915050565b5f5b838110156101d95780820151818401526020810190506101be565b5f8484015250505050565b5f601f19601f8301169050919050565b5f6101fe826101a2565b61020881856101ac565b93506102188185602086016101bc565b610221816101e4565b840191505092915050565b5f6020820190508181035f83015261024481846101f4565b905092915050565b5f604051905090565b5f80fd5b5f80fd5b5f80fd5b5f80fd5b7f4e487b71000000000000000000000000000000000000000000000000000000005f52604160045260245ffd5b61029b826101e4565b810181811067ffffffffffffffff821117156102ba576102b9610265565b5b80604052505050565b5f6102cc61024c565b90506102d88282610292565b919050565b5f67ffffffffffffffff8211156102f7576102f6610265565b5b610300826101e4565b9050602081019050919050565b828183375f83830152505050565b5f61032d610328846102dd565b6102c3565b90508281526020810184848401111561034957610348610261565b5b61035484828561030d565b509392505050565b5f82601f8301126103705761036f61025d565b5b813561038084826020860161031b565b91505092915050565b5f6020828403121561039e5761039d610255565b5b5f82013567ffffffffffffffff8111156103bb576103ba610259565b5b6103c78482850161035c565b91505092915050565b5f80604083850312156103e6576103e5610255565b5b5f83013567ffffffffffffffff81111561040357610402610259565b5b61040f8582860161035c565b925050602083013567ffffffffffffffff8111156104305761042f610259565b5b61043c8582860161035c565b9150509250929050565b5f8115159050919050565b61045a81610446565b82525050565b5f6020820190506104735f830184610451565b92915050565b7f4e487b71000000000000000000000000000000000000000000000000000000005f52602260045260245ffd5b5f60028204905060018216806104bd57607f821691505b6020821081036104d0576104cf610479565b5b50919050565b5f819050815f5260205f209050919050565b5f6020601f8301049050919050565b5f82821b905092915050565b5f600883026105327fffffffffffffffffffffffffffffffffffffffffffffffffffffffffffffffff826104f7565b61053c86836104f7565b95508019841693508086168417925050509392505050565b5f819050919050565b5f819050919050565b5f61058061057b61057684610554565b61055d565b610554565b9050919050565b5f819050919050565b61059983610566565b6105ad6105a582610587565b848454610503565b825550505050565b5f90565b6105c16105b5565b6105cc818484610590565b505050565b5b818110156105ef576105e45f826105b9565b6001810190506105d2565b5050565b601f82111561063457610605816104d6565b61060e846104e8565b8101602085101561061d578190505b610631610629856104e8565b8301826105d1565b50505b505050565b5f82821c905092915050565b5f6106545f1984600802610639565b1980831691505092915050565b5f61066c8383610645565b9150826002028217905092915050565b610685826101a2565b67ffffffffffffffff81111561069e5761069d610265565b5b6106a882546104a6565b6106b38282856105f3565b5f60209050601f8311600181146106e4575f84156106d2578287015190505b6106dc8582610661565b865550610743565b601f1984166106f2866104d6565b5f5b82811015610719578489015182556001820191506020850194506020810190506106f4565b868310156107365784890151610732601f891682610645565b8355505b6001600288020188555050505b505050505050565b5f81905092915050565b5f61075f826101a2565b610769818561074b565b93506107798185602086016101bc565b80840191505092915050565b5f6107908284610755565b91508190509291505056fea26469706673582212206b0f8439762a4b4c703785b594485e52ea846cb65c72cb1db9974711c1254c5564736f6c63430008150033",
  "immutableReferences": {},
  "source": "// SPDX-License-Identifier: SEE LICENSE IN LICENSE\r\npragma solidity ^0.8.14;\r\n\r\ncontract ExampleStrings {\r\n  string public myString = \"hello world\";\r\n\r\n  function setMyString(string memory _myString) public {\r\n    myString = _myString;\r\n  }\r\n\r\n  function compareTwoStrings(string memory _stringOne, string memory _stringTwo) public pure returns(bool){\r\n    return keccak256(abi.encodePacked(_stringOne)) == keccak256(abi.encodePacked(_stringTwo));\r\n  }\r\n}",
  "sourcePath": "C:\\Users\\jung_\\Desktop\\Coding\\web3-projects\\web3-development-learning\\contracts\\ExampleStrings.sol",
  "compiler": {
    "name": "solc",
    "version": "0.8.21+commit.d9974bed.Emscripten.clang"
  },
  "schemaVersion": "3.4.16",
  "updatedAt": "2024-08-03T13:54:09.205Z",
  "networkType": "ethereum",
  "devdoc": {
    "kind": "dev",
    "methods": {},
    "version": 1
  },
  "userdoc": {
    "kind": "user",
    "methods": {},
    "version": 1
  }
}