{
  "contractName": "ExceptionRequire",
  "abi": [
    {
      "inputs": [
        {
          "internalType": "address",
          "name": "",
          "type": "address"
        }
      ],
      "name": "balanceReceived",
      "outputs": [
        {
          "internalType": "uint8",
          "name": "",
          "type": "uint8"
        }
      ],
      "stateMutability": "view",
      "type": "function",
      "constant": true
    },
    {
      "inputs": [],
      "name": "receiveMoney",
      "outputs": [],
      "stateMutability": "payable",
      "type": "function",
      "payable": true
    },
    {
      "inputs": [
        {
          "internalType": "address payable",
          "name": "_to",
          "type": "address"
        },
        {
          "internalType": "uint8",
          "name": "_amount",
          "type": "uint8"
        }
      ],
      "name": "withdrawMoney",
      "outputs": [],
      "stateMutability": "nonpayable",
      "type": "function"
    }
  ],
  "bytecode": "0x608060405234801561000f575f80fd5b506105868061001d5f395ff3fe608060405260043610610033575f3560e01c806367c114b8146100375780636d26ec181461005f578063d18a42e114610069575b5f80fd5b348015610042575f80fd5b5061005d60048036038101906100589190610324565b6100a5565b005b6100676101f0565b005b348015610074575f80fd5b5061008f600480360381019061008a919061039d565b610274565b60405161009c91906103d7565b60405180910390f35b5f803373ffffffffffffffffffffffffffffffffffffffff1673ffffffffffffffffffffffffffffffffffffffff1681526020019081526020015f205f9054906101000a900460ff1660ff168160ff161115610136576040517f08c379a000000000000000000000000000000000000000000000000000000000815260040161012d90610470565b60405180910390fd5b805f803373ffffffffffffffffffffffffffffffffffffffff1673ffffffffffffffffffffffffffffffffffffffff1681526020019081526020015f205f8282829054906101000a900460ff1661018d91906104bb565b92506101000a81548160ff021916908360ff1602179055508173ffffffffffffffffffffffffffffffffffffffff166108fc8260ff1690811502906040515f60405180830381858888f193505050501580156101eb573d5f803e3d5ffd5b505050565b3460ff163414610203576102026104ef565b5b345f803373ffffffffffffffffffffffffffffffffffffffff1673ffffffffffffffffffffffffffffffffffffffff1681526020019081526020015f205f8282829054906101000a900460ff1661025a919061051c565b92506101000a81548160ff021916908360ff160217905550565b5f602052805f5260405f205f915054906101000a900460ff1681565b5f80fd5b5f73ffffffffffffffffffffffffffffffffffffffff82169050919050565b5f6102bd82610294565b9050919050565b6102cd816102b3565b81146102d7575f80fd5b50565b5f813590506102e8816102c4565b92915050565b5f60ff82169050919050565b610303816102ee565b811461030d575f80fd5b50565b5f8135905061031e816102fa565b92915050565b5f806040838503121561033a57610339610290565b5b5f610347858286016102da565b925050602061035885828601610310565b9150509250929050565b5f61036c82610294565b9050919050565b61037c81610362565b8114610386575f80fd5b50565b5f8135905061039781610373565b92915050565b5f602082840312156103b2576103b1610290565b5b5f6103bf84828501610389565b91505092915050565b6103d1816102ee565b82525050565b5f6020820190506103ea5f8301846103c8565b92915050565b5f82825260208201905092915050565b7f496e73756666696369656e7420757365722066756e647320696e20636f6e74725f8201527f6163742e00000000000000000000000000000000000000000000000000000000602082015250565b5f61045a6024836103f0565b915061046582610400565b604082019050919050565b5f6020820190508181035f8301526104878161044e565b9050919050565b7f4e487b71000000000000000000000000000000000000000000000000000000005f52601160045260245ffd5b5f6104c5826102ee565b91506104d0836102ee565b9250828203905060ff8111156104e9576104e861048e565b5b92915050565b7f4e487b71000000000000000000000000000000000000000000000000000000005f52600160045260245ffd5b5f610526826102ee565b9150610531836102ee565b9250828201905060ff81111561054a5761054961048e565b5b9291505056fea26469706673582212203b28fabe6be371a0f2eb3c89ceed74b2aa4253a6fa99be920c78b9db5132d45664736f6c63430008150033",
  "immutableReferences": {},
  "source": "// SPDX-License-Identifier: SEE LICENSE IN LICENSE\r\npragma solidity ^0.8.14;\r\n\r\ncontract ExceptionRequire {\r\n  mapping (address => uint8) public balanceReceived;\r\n\r\n  function receiveMoney() public payable {\r\n    assert(msg.value == uint8(msg.value)); // ! CONTINUES USING GAS.\r\n    balanceReceived[msg.sender] += uint8(msg.value);\r\n  }\r\n\r\n  function withdrawMoney(address payable _to, uint8 _amount) public {\r\n    require(_amount <= balanceReceived[msg.sender], \"Insufficient user funds in contract.\"); // ! STOPS USING GAS AT THIS POINT.\r\n    balanceReceived[msg.sender] -= _amount;\r\n    _to.transfer(_amount);\r\n  }\r\n}",
  "sourcePath": "C:\\Users\\jung_\\Desktop\\Coding\\web3-projects\\web3-development-learning\\contracts\\section-five\\ExceptionRequire.sol",
  "compiler": {
    "name": "solc",
    "version": "0.8.21+commit.d9974bed.Emscripten.clang"
  },
  "schemaVersion": "3.4.16",
  "updatedAt": "2024-08-04T19:41:25.105Z",
  "networkType": "ethereum",
  "devdoc": {
    "kind": "dev",
    "methods": {},
    "version": 1
  },
  "userdoc": {
    "kind": "user",
    "methods": {},
    "version": 1
  }
}