{
  "contractName": "InheritanceModifier",
  "abi": [
    {
      "inputs": [],
      "stateMutability": "nonpayable",
      "type": "constructor"
    },
    {
      "inputs": [
        {
          "internalType": "address",
          "name": "",
          "type": "address"
        }
      ],
      "name": "tokenBalance",
      "outputs": [
        {
          "internalType": "uint256",
          "name": "",
          "type": "uint256"
        }
      ],
      "stateMutability": "view",
      "type": "function",
      "constant": true
    },
    {
      "inputs": [],
      "name": "createNewToken",
      "outputs": [],
      "stateMutability": "nonpayable",
      "type": "function"
    },
    {
      "inputs": [],
      "name": "burnToken",
      "outputs": [],
      "stateMutability": "nonpayable",
      "type": "function"
    },
    {
      "inputs": [],
      "name": "purchaseToken",
      "outputs": [],
      "stateMutability": "payable",
      "type": "function",
      "payable": true
    },
    {
      "inputs": [
        {
          "internalType": "address",
          "name": "_to",
          "type": "address"
        },
        {
          "internalType": "uint256",
          "name": "_amount",
          "type": "uint256"
        }
      ],
      "name": "sendToken",
      "outputs": [],
      "stateMutability": "nonpayable",
      "type": "function"
    },
    {
      "inputs": [
        {
          "internalType": "address",
          "name": "_account",
          "type": "address"
        }
      ],
      "name": "getTokenBalance",
      "outputs": [
        {
          "internalType": "uint256",
          "name": "",
          "type": "uint256"
        }
      ],
      "stateMutability": "view",
      "type": "function",
      "constant": true
    }
  ],
  "bytecode": "0x6080604052670de0b6b3a764000060025534801561001b575f80fd5b50335f806101000a81548173ffffffffffffffffffffffffffffffffffffffff021916908373ffffffffffffffffffffffffffffffffffffffff160217905550606460015f805f9054906101000a900473ffffffffffffffffffffffffffffffffffffffff1673ffffffffffffffffffffffffffffffffffffffff1673ffffffffffffffffffffffffffffffffffffffff1681526020019081526020015f2081905550610a25806100cb5f395ff3fe608060405260043610610054575f3560e01c80633aecd0e314610058578063412664ae14610094578063754fc38c146100bc578063a95c4d62146100d2578063eedc966a146100dc578063faa0a26414610118575b5f80fd5b348015610063575f80fd5b5061007e600480360381019061007991906106ac565b61012e565b60405161008b91906106ef565b60405180910390f35b34801561009f575f80fd5b506100ba60048036038101906100b59190610732565b610174565b005b3480156100c7575f80fd5b506100d061029e565b005b6100da61039f565b005b3480156100e7575f80fd5b5061010260048036038101906100fd91906106ac565b610538565b60405161010f91906106ef565b60405180910390f35b348015610123575f80fd5b5061012c61054d565b005b5f60015f8373ffffffffffffffffffffffffffffffffffffffff1673ffffffffffffffffffffffffffffffffffffffff1681526020019081526020015f20549050919050565b8060015f3373ffffffffffffffffffffffffffffffffffffffff1673ffffffffffffffffffffffffffffffffffffffff1681526020019081526020015f205410156101f4576040517f08c379a00000000000000000000000000000000000000000000000000000000081526004016101eb906107ca565b60405180910390fd5b8060015f3373ffffffffffffffffffffffffffffffffffffffff1673ffffffffffffffffffffffffffffffffffffffff1681526020019081526020015f205f8282546102409190610815565b925050819055508060015f8473ffffffffffffffffffffffffffffffffffffffff1673ffffffffffffffffffffffffffffffffffffffff1681526020019081526020015f205f8282546102939190610848565b925050819055505050565b5f8054906101000a900473ffffffffffffffffffffffffffffffffffffffff1673ffffffffffffffffffffffffffffffffffffffff163373ffffffffffffffffffffffffffffffffffffffff161461032b576040517f08c379a0000000000000000000000000000000000000000000000000000000008152600401610322906108c5565b60405180910390fd5b60015f805f9054906101000a900473ffffffffffffffffffffffffffffffffffffffff1673ffffffffffffffffffffffffffffffffffffffff1673ffffffffffffffffffffffffffffffffffffffff1681526020019081526020015f205f815480929190610398906108e3565b9190505550565b5f3460025460015f805f9054906101000a900473ffffffffffffffffffffffffffffffffffffffff1673ffffffffffffffffffffffffffffffffffffffff1673ffffffffffffffffffffffffffffffffffffffff1681526020019081526020015f205461040c919061092a565b6104169190610998565b11610456576040517f08c379a000000000000000000000000000000000000000000000000000000000815260040161044d906107ca565b60405180910390fd5b600254346104649190610998565b60015f805f9054906101000a900473ffffffffffffffffffffffffffffffffffffffff1673ffffffffffffffffffffffffffffffffffffffff1673ffffffffffffffffffffffffffffffffffffffff1681526020019081526020015f205f8282546104cf9190610815565b92505081905550600254346104e49190610998565b60015f3373ffffffffffffffffffffffffffffffffffffffff1673ffffffffffffffffffffffffffffffffffffffff1681526020019081526020015f205f82825461052f9190610848565b92505081905550565b6001602052805f5260405f205f915090505481565b5f8054906101000a900473ffffffffffffffffffffffffffffffffffffffff1673ffffffffffffffffffffffffffffffffffffffff163373ffffffffffffffffffffffffffffffffffffffff16146105da576040517f08c379a00000000000000000000000000000000000000000000000000000000081526004016105d1906108c5565b60405180910390fd5b60015f805f9054906101000a900473ffffffffffffffffffffffffffffffffffffffff1673ffffffffffffffffffffffffffffffffffffffff1673ffffffffffffffffffffffffffffffffffffffff1681526020019081526020015f205f815480929190610647906109c8565b9190505550565b5f80fd5b5f73ffffffffffffffffffffffffffffffffffffffff82169050919050565b5f61067b82610652565b9050919050565b61068b81610671565b8114610695575f80fd5b50565b5f813590506106a681610682565b92915050565b5f602082840312156106c1576106c061064e565b5b5f6106ce84828501610698565b91505092915050565b5f819050919050565b6106e9816106d7565b82525050565b5f6020820190506107025f8301846106e0565b92915050565b610711816106d7565b811461071b575f80fd5b50565b5f8135905061072c81610708565b92915050565b5f80604083850312156107485761074761064e565b5b5f61075585828601610698565b92505060206107668582860161071e565b9150509250929050565b5f82825260208201905092915050565b7f4e6f7420656e6f75676820746f6b656e732e00000000000000000000000000005f82015250565b5f6107b4601283610770565b91506107bf82610780565b602082019050919050565b5f6020820190508181035f8301526107e1816107a8565b9050919050565b7f4e487b71000000000000000000000000000000000000000000000000000000005f52601160045260245ffd5b5f61081f826106d7565b915061082a836106d7565b9250828203905081811115610842576108416107e8565b5b92915050565b5f610852826106d7565b915061085d836106d7565b9250828201905080821115610875576108746107e8565b5b92915050565b7f596f7520617265206e6f7420616c6c6f7765642e0000000000000000000000005f82015250565b5f6108af601483610770565b91506108ba8261087b565b602082019050919050565b5f6020820190508181035f8301526108dc816108a3565b9050919050565b5f6108ed826106d7565b91507fffffffffffffffffffffffffffffffffffffffffffffffffffffffffffffffff820361091f5761091e6107e8565b5b600182019050919050565b5f610934826106d7565b915061093f836106d7565b925082820261094d816106d7565b91508282048414831517610964576109636107e8565b5b5092915050565b7f4e487b71000000000000000000000000000000000000000000000000000000005f52601260045260245ffd5b5f6109a2826106d7565b91506109ad836106d7565b9250826109bd576109bc61096b565b5b828204905092915050565b5f6109d2826106d7565b91505f82036109e4576109e36107e8565b5b60018203905091905056fea26469706673582212207a49d7e65a57c06aff4c2a29568f9e9527136e5d8589c31d08b2911911a8d01564736f6c63430008150033",
  "immutableReferences": {},
  "source": "// SPDX-License-Identifier: SEE LICENSE IN LICENSE\r\npragma solidity ^0.8.16;\r\n\r\nimport \"./Ownable.sol\";\r\ncontract InheritanceModifier is Owner {\r\n  mapping(address => uint) public tokenBalance;\r\n  uint tokenPrice = 1 ether;\r\n\r\n  constructor() {\r\n    tokenBalance[owner] = 100;\r\n  }\r\n\r\n  function createNewToken() public onlyOwner {\r\n    tokenBalance[owner]++;\r\n  }\r\n\r\n  function burnToken() public onlyOwner {\r\n    tokenBalance[owner]--;\r\n  }\r\n\r\n  function purchaseToken() public payable {\r\n    require((tokenBalance[owner] * tokenPrice) / msg.value > 0, \"Not enough tokens.\");\r\n    tokenBalance[owner] -= msg.value / tokenPrice;\r\n    tokenBalance[msg.sender] += msg.value / tokenPrice;\r\n  }\r\n\r\n  function sendToken(address _to, uint _amount) public {\r\n    require(tokenBalance[msg.sender] >= _amount, \"Not enough tokens.\");\r\n    tokenBalance[msg.sender] -= _amount;\r\n    tokenBalance[_to] += _amount;\r\n  }\r\n\r\n  function getTokenBalance(address _account) public view returns(uint) {\r\n    return tokenBalance[_account];\r\n  }\r\n}",
  "sourcePath": "C:\\Users\\jung_\\Desktop\\Coding\\web3-projects\\web3-development-learning\\contracts\\section-6\\InheritanceModifier.sol",
  "compiler": {
    "name": "solc",
    "version": "0.8.21+commit.d9974bed.Emscripten.clang"
  },
  "schemaVersion": "3.4.16",
  "updatedAt": "2024-08-05T19:35:26.028Z",
  "networkType": "ethereum",
  "devdoc": {
    "kind": "dev",
    "methods": {},
    "version": 1
  },
  "userdoc": {
    "kind": "user",
    "methods": {},
    "version": 1
  }
}