{
  "contractName": "MappingStructs",
  "abi": [
    {
      "inputs": [
        {
          "internalType": "address",
          "name": "_from",
          "type": "address"
        },
        {
          "internalType": "uint256",
          "name": "_numDeposit",
          "type": "uint256"
        }
      ],
      "name": "getDepositNum",
      "outputs": [
        {
          "components": [
            {
              "internalType": "uint256",
              "name": "amount",
              "type": "uint256"
            },
            {
              "internalType": "uint256",
              "name": "timestamp",
              "type": "uint256"
            }
          ],
          "internalType": "struct MappingStructs.Transaction",
          "name": "",
          "type": "tuple"
        }
      ],
      "stateMutability": "view",
      "type": "function"
    },
    {
      "inputs": [],
      "name": "getBalance",
      "outputs": [
        {
          "internalType": "uint256",
          "name": "",
          "type": "uint256"
        }
      ],
      "stateMutability": "view",
      "type": "function"
    },
    {
      "inputs": [],
      "name": "depositMoney",
      "outputs": [],
      "stateMutability": "payable",
      "type": "function"
    },
    {
      "inputs": [
        {
          "internalType": "address payable",
          "name": "_to",
          "type": "address"
        },
        {
          "internalType": "uint256",
          "name": "_amount",
          "type": "uint256"
        }
      ],
      "name": "withdrawMoney",
      "outputs": [],
      "stateMutability": "nonpayable",
      "type": "function"
    }
  ],
  "bytecode": "0x608060405234801561000f575f80fd5b5061075f8061001d5f395ff3fe60806040526004361061003e575f3560e01c806312065fe01461004257806316c05aa21461006c57806355e14fe614610076578063f274c897146100b2575b5f80fd5b34801561004d575f80fd5b506100566100da565b60405161006391906104a2565b60405180910390f35b6100746100de565b005b348015610081575f80fd5b5061009c60048036038101906100979190610543565b610247565b6040516100a991906105bd565b60405180910390f35b3480156100bd575f80fd5b506100d860048036038101906100d39190610611565b6102c3565b005b5f90565b6100e6610472565b34815f01818152505042816020018181525050805f803373ffffffffffffffffffffffffffffffffffffffff1673ffffffffffffffffffffffffffffffffffffffff1681526020019081526020015f206003015f805f3373ffffffffffffffffffffffffffffffffffffffff1673ffffffffffffffffffffffffffffffffffffffff1681526020019081526020015f206001015481526020019081526020015f205f820151815f0155602082015181600101559050505f803373ffffffffffffffffffffffffffffffffffffffff1673ffffffffffffffffffffffffffffffffffffffff1681526020019081526020015f206001015f8154809291906101eb9061067c565b9190505550345f803373ffffffffffffffffffffffffffffffffffffffff1673ffffffffffffffffffffffffffffffffffffffff1681526020019081526020015f205f015f82825461023d91906106c3565b9250508190555050565b61024f610472565b5f808473ffffffffffffffffffffffffffffffffffffffff1673ffffffffffffffffffffffffffffffffffffffff1681526020019081526020015f206003015f8381526020019081526020015f206040518060400160405290815f8201548152602001600182015481525050905092915050565b6102cb610472565b81815f01818152505042816020018181525050805f803373ffffffffffffffffffffffffffffffffffffffff1673ffffffffffffffffffffffffffffffffffffffff1681526020019081526020015f206004015f805f3373ffffffffffffffffffffffffffffffffffffffff1673ffffffffffffffffffffffffffffffffffffffff1681526020019081526020015f206002015481526020019081526020015f205f820151815f0155602082015181600101559050505f803373ffffffffffffffffffffffffffffffffffffffff1673ffffffffffffffffffffffffffffffffffffffff1681526020019081526020015f206002015f8154809291906103d09061067c565b9190505550815f803373ffffffffffffffffffffffffffffffffffffffff1673ffffffffffffffffffffffffffffffffffffffff1681526020019081526020015f205f015f82825461042291906106f6565b925050819055508273ffffffffffffffffffffffffffffffffffffffff166108fc8390811502906040515f60405180830381858888f1935050505015801561046c573d5f803e3d5ffd5b50505050565b60405180604001604052805f81526020015f81525090565b5f819050919050565b61049c8161048a565b82525050565b5f6020820190506104b55f830184610493565b92915050565b5f80fd5b5f73ffffffffffffffffffffffffffffffffffffffff82169050919050565b5f6104e8826104bf565b9050919050565b6104f8816104de565b8114610502575f80fd5b50565b5f81359050610513816104ef565b92915050565b6105228161048a565b811461052c575f80fd5b50565b5f8135905061053d81610519565b92915050565b5f8060408385031215610559576105586104bb565b5b5f61056685828601610505565b92505060206105778582860161052f565b9150509250929050565b61058a8161048a565b82525050565b604082015f8201516105a45f850182610581565b5060208201516105b76020850182610581565b50505050565b5f6040820190506105d05f830184610590565b92915050565b5f6105e0826104bf565b9050919050565b6105f0816105d6565b81146105fa575f80fd5b50565b5f8135905061060b816105e7565b92915050565b5f8060408385031215610627576106266104bb565b5b5f610634858286016105fd565b92505060206106458582860161052f565b9150509250929050565b7f4e487b71000000000000000000000000000000000000000000000000000000005f52601160045260245ffd5b5f6106868261048a565b91507fffffffffffffffffffffffffffffffffffffffffffffffffffffffffffffffff82036106b8576106b761064f565b5b600182019050919050565b5f6106cd8261048a565b91506106d88361048a565b92508282019050808211156106f0576106ef61064f565b5b92915050565b5f6107008261048a565b915061070b8361048a565b92508282039050818111156107235761072261064f565b5b9291505056fea2646970667358221220ffaf8c5aa14ba635966465beb21b5a53d90382d07b3a95829e958c637862ce8b64736f6c63430008150033",
  "immutableReferences": {},
  "source": "// SPDX-License-Identifier: SEE LICENSE IN LICENSE\r\npragma solidity ^0.8.14;\r\n\r\ncontract MappingStructs {\r\n  struct Transaction {\r\n    uint amount;\r\n    uint timestamp;\r\n  }\r\n\r\n  struct Balance {\r\n    uint totalBalance;\r\n    uint numDeposits;\r\n    uint numWithdrawls;\r\n    mapping(uint => Transaction) deposits;\r\n    mapping(uint => Transaction) withdrawals;\r\n  }\r\n\r\n  mapping(address => Balance) balance;\r\n\r\n  function getDepositNum(address _from, uint _numDeposit) public view returns(Transaction memory) {\r\n    return balance[_from].deposits[_numDeposit];\r\n  }\r\n\r\n  function getBalance() public view returns(uint) {}\r\n\r\n  function depositMoney() public payable {\r\n    Transaction memory deposit;\r\n    deposit.amount = msg.value;\r\n    deposit.timestamp = block.timestamp;\r\n    balance[msg.sender].deposits[balance[msg.sender].numDeposits] = deposit;\r\n    balance[msg.sender].numDeposits++;\r\n    balance[msg.sender].totalBalance += msg.value;\r\n  }\r\n\r\n  function withdrawMoney(address payable _to, uint _amount) public {\r\n    Transaction memory withdrawal;\r\n    withdrawal.amount = _amount;\r\n    withdrawal.timestamp = block.timestamp;\r\n    balance[msg.sender].withdrawals[balance[msg.sender].numWithdrawls] = withdrawal;\r\n    balance[msg.sender].numWithdrawls++;\r\n    balance[msg.sender].totalBalance -= _amount;\r\n    _to.transfer(_amount);\r\n  }\r\n}",
  "sourcePath": "C:\\Users\\jung_\\Desktop\\Coding\\web3-projects\\web3-development-learning\\contracts\\section-5\\MappingStructs.sol",
  "compiler": {
    "name": "solc",
    "version": "0.8.21+commit.d9974bed.Emscripten.clang"
  },
  "schemaVersion": "3.4.16",
  "updatedAt": "2024-08-05T19:35:25.006Z",
  "devdoc": {
    "kind": "dev",
    "methods": {},
    "version": 1
  },
  "userdoc": {
    "kind": "user",
    "methods": {},
    "version": 1
  }
}