{
  "contractName": "Mapping",
  "abi": [
    {
      "inputs": [
        {
          "internalType": "address",
          "name": "",
          "type": "address"
        }
      ],
      "name": "myAddressMapping",
      "outputs": [
        {
          "internalType": "bool",
          "name": "",
          "type": "bool"
        }
      ],
      "stateMutability": "view",
      "type": "function"
    },
    {
      "inputs": [
        {
          "internalType": "uint256",
          "name": "",
          "type": "uint256"
        }
      ],
      "name": "myMapping",
      "outputs": [
        {
          "internalType": "bool",
          "name": "",
          "type": "bool"
        }
      ],
      "stateMutability": "view",
      "type": "function"
    },
    {
      "inputs": [
        {
          "internalType": "uint256",
          "name": "",
          "type": "uint256"
        },
        {
          "internalType": "uint256",
          "name": "",
          "type": "uint256"
        }
      ],
      "name": "nestedMapping",
      "outputs": [
        {
          "internalType": "bool",
          "name": "",
          "type": "bool"
        }
      ],
      "stateMutability": "view",
      "type": "function"
    },
    {
      "inputs": [
        {
          "internalType": "uint256",
          "name": "_index",
          "type": "uint256"
        }
      ],
      "name": "setValue",
      "outputs": [],
      "stateMutability": "nonpayable",
      "type": "function"
    },
    {
      "inputs": [],
      "name": "setMyAddressToTrue",
      "outputs": [],
      "stateMutability": "nonpayable",
      "type": "function"
    },
    {
      "inputs": [
        {
          "internalType": "uint256",
          "name": "_key1",
          "type": "uint256"
        },
        {
          "internalType": "uint256",
          "name": "_key2",
          "type": "uint256"
        },
        {
          "internalType": "bool",
          "name": "_value",
          "type": "bool"
        }
      ],
      "name": "setNestedMapping",
      "outputs": [],
      "stateMutability": "nonpayable",
      "type": "function"
    }
  ],
  "bytecode": "0x608060405234801561000f575f80fd5b5061045e8061001d5f395ff3fe608060405234801561000f575f80fd5b5060043610610060575f3560e01c80635524107714610064578063634899ce146100805780637c6688441461008a578063b92ba3b8146100ba578063c0908dfe146100ea578063cf6b7d8a1461011a575b5f80fd5b61007e6004803603810190610079919061028d565b610136565b005b610088610161565b005b6100a4600480360381019061009f919061028d565b6101b7565b6040516100b191906102d2565b60405180910390f35b6100d460048036038101906100cf9190610345565b6101d3565b6040516100e191906102d2565b60405180910390f35b61010460048036038101906100ff9190610370565b6101f0565b60405161011191906102d2565b60405180910390f35b610134600480360381019061012f91906103d8565b61021a565b005b60015f808381526020019081526020015f205f6101000a81548160ff02191690831515021790555050565b6001805f3373ffffffffffffffffffffffffffffffffffffffff1673ffffffffffffffffffffffffffffffffffffffff1681526020019081526020015f205f6101000a81548160ff021916908315150217905550565b5f602052805f5260405f205f915054906101000a900460ff1681565b6001602052805f5260405f205f915054906101000a900460ff1681565b6002602052815f5260405f20602052805f5260405f205f915091509054906101000a900460ff1681565b8060025f8581526020019081526020015f205f8481526020019081526020015f205f6101000a81548160ff021916908315150217905550505050565b5f80fd5b5f819050919050565b61026c8161025a565b8114610276575f80fd5b50565b5f8135905061028781610263565b92915050565b5f602082840312156102a2576102a1610256565b5b5f6102af84828501610279565b91505092915050565b5f8115159050919050565b6102cc816102b8565b82525050565b5f6020820190506102e55f8301846102c3565b92915050565b5f73ffffffffffffffffffffffffffffffffffffffff82169050919050565b5f610314826102eb565b9050919050565b6103248161030a565b811461032e575f80fd5b50565b5f8135905061033f8161031b565b92915050565b5f6020828403121561035a57610359610256565b5b5f61036784828501610331565b91505092915050565b5f806040838503121561038657610385610256565b5b5f61039385828601610279565b92505060206103a485828601610279565b9150509250929050565b6103b7816102b8565b81146103c1575f80fd5b50565b5f813590506103d2816103ae565b92915050565b5f805f606084860312156103ef576103ee610256565b5b5f6103fc86828701610279565b935050602061040d86828701610279565b925050604061041e868287016103c4565b915050925092509256fea26469706673582212201d96cb77c727bbb4b25c498ceb789e5c10c43873d11085235610918a20a078a264736f6c63430008150033",
  "immutableReferences": {},
  "source": "// SPDX-License-Identifier: SEE LICENSE IN LICENSE\r\npragma solidity ^0.8.20;\r\n\r\ncontract Mapping {\r\n  mapping(uint => bool) public myMapping;\r\n  mapping(address => bool) public myAddressMapping; // whitelisting.\r\n  mapping(uint => mapping(uint => bool)) public nestedMapping;\r\n\r\n  function setValue(uint _index) public {\r\n    myMapping[_index] = true;\r\n  }\r\n  \r\n  function setMyAddressToTrue() public {\r\n    myAddressMapping[msg.sender] = true;\r\n  }\r\n  \r\n  function setNestedMapping(uint _key1, uint _key2, bool _value) public {\r\n    nestedMapping[_key1][_key2] = _value;\r\n  }\r\n}",
  "sourcePath": "C:\\Users\\jung_\\Desktop\\Coding\\web3-projects\\web3-development-learning\\contracts\\section-5\\Mapping.sol",
  "compiler": {
    "name": "solc",
    "version": "0.8.21+commit.d9974bed.Emscripten.clang"
  },
  "schemaVersion": "3.4.16",
  "updatedAt": "2024-08-05T15:44:22.657Z",
  "devdoc": {
    "kind": "dev",
    "methods": {},
    "version": 1
  },
  "userdoc": {
    "kind": "user",
    "methods": {},
    "version": 1
  }
}