{
  "contractName": "PracticalMapping",
  "abi": [
    {
      "inputs": [
        {
          "internalType": "address",
          "name": "",
          "type": "address"
        }
      ],
      "name": "depositers",
      "outputs": [
        {
          "internalType": "uint256",
          "name": "",
          "type": "uint256"
        }
      ],
      "stateMutability": "view",
      "type": "function"
    },
    {
      "inputs": [],
      "name": "getBalance",
      "outputs": [
        {
          "internalType": "uint256",
          "name": "",
          "type": "uint256"
        }
      ],
      "stateMutability": "view",
      "type": "function"
    },
    {
      "inputs": [
        {
          "internalType": "uint256",
          "name": "_amount",
          "type": "uint256"
        }
      ],
      "name": "deposit",
      "outputs": [],
      "stateMutability": "payable",
      "type": "function"
    },
    {
      "inputs": [
        {
          "internalType": "uint256",
          "name": "_amount",
          "type": "uint256"
        }
      ],
      "name": "withdraw",
      "outputs": [],
      "stateMutability": "nonpayable",
      "type": "function"
    }
  ],
  "bytecode": "0x608060405234801561000f575f80fd5b506104208061001d5f395ff3fe60806040526004361061003e575f3560e01c806312065fe0146100425780632e1a7d4d1461006c5780636384c04514610094578063b6b55f25146100d0575b5f80fd5b34801561004d575f80fd5b506100566100ec565b6040516100639190610260565b60405180910390f35b348015610077575f80fd5b50610092600480360381019061008d91906102a7565b6100f3565b005b34801561009f575f80fd5b506100ba60048036038101906100b5919061032c565b6101df565b6040516100c79190610260565b60405180910390f35b6100ea60048036038101906100e591906102a7565b6101f3565b005b5f47905090565b5f6100fc6100ec565b11156101dc57805f803373ffffffffffffffffffffffffffffffffffffffff1673ffffffffffffffffffffffffffffffffffffffff1681526020019081526020015f2054106101dc57805f803373ffffffffffffffffffffffffffffffffffffffff1673ffffffffffffffffffffffffffffffffffffffff1681526020019081526020015f205f8282546101909190610384565b925050819055503373ffffffffffffffffffffffffffffffffffffffff166108fc8290811502906040515f60405180830381858888f193505050501580156101da573d5f803e3d5ffd5b505b50565b5f602052805f5260405f205f915090505481565b805f803373ffffffffffffffffffffffffffffffffffffffff1673ffffffffffffffffffffffffffffffffffffffff1681526020019081526020015f205f82825461023e91906103b7565b9250508190555050565b5f819050919050565b61025a81610248565b82525050565b5f6020820190506102735f830184610251565b92915050565b5f80fd5b61028681610248565b8114610290575f80fd5b50565b5f813590506102a18161027d565b92915050565b5f602082840312156102bc576102bb610279565b5b5f6102c984828501610293565b91505092915050565b5f73ffffffffffffffffffffffffffffffffffffffff82169050919050565b5f6102fb826102d2565b9050919050565b61030b816102f1565b8114610315575f80fd5b50565b5f8135905061032681610302565b92915050565b5f6020828403121561034157610340610279565b5b5f61034e84828501610318565b91505092915050565b7f4e487b71000000000000000000000000000000000000000000000000000000005f52601160045260245ffd5b5f61038e82610248565b915061039983610248565b92508282039050818111156103b1576103b0610357565b5b92915050565b5f6103c182610248565b91506103cc83610248565b92508282019050808211156103e4576103e3610357565b5b9291505056fea26469706673582212200e3dd2321a17efba5ab2ceec3e6ea595f9f502441f88e40fd9979f2f3ed36c2f64736f6c63430008150033",
  "immutableReferences": {},
  "source": "// SPDX-License-Identifier: SEE LICENSE IN LICENSE\r\npragma solidity ^0.8.14;\r\n\r\ncontract PracticalMapping {\r\n  mapping(address => uint) public depositers;\r\n\r\n  function getBalance() public view returns(uint) {\r\n    return address(this).balance;\r\n  }\r\n\r\n  function deposit(uint _amount) public payable {\r\n    depositers[msg.sender] += _amount;\r\n  }\r\n\r\n  function withdraw(uint _amount) public {\r\n    if (getBalance() <= 0) { return; } // ensures there is money in the contract.\r\n    if (depositers[msg.sender] < _amount) { return; } // ensures the sender has the requested amount in the contract.\r\n    depositers[msg.sender] -= _amount; // ! prevents re-entry attacks.\r\n    payable(msg.sender).transfer(_amount);\r\n  }\r\n}",
  "sourcePath": "C:\\Users\\jung_\\Desktop\\Coding\\web3-projects\\web3-development-learning\\contracts\\section-5\\PracticalMapping.sol",
  "compiler": {
    "name": "solc",
    "version": "0.8.21+commit.d9974bed.Emscripten.clang"
  },
  "schemaVersion": "3.4.16",
  "updatedAt": "2024-08-05T15:44:22.662Z",
  "devdoc": {
    "kind": "dev",
    "methods": {},
    "version": 1
  },
  "userdoc": {
    "kind": "user",
    "methods": {},
    "version": 1
  }
}