{
  "contractName": "ReceiverAction",
  "abi": [
    {
      "inputs": [],
      "name": "balanceReceived",
      "outputs": [
        {
          "internalType": "uint256",
          "name": "",
          "type": "uint256"
        }
      ],
      "stateMutability": "view",
      "type": "function"
    },
    {
      "stateMutability": "payable",
      "type": "receive"
    }
  ],
  "bytecode": "0x608060405234801561000f575f80fd5b506101228061001d5f395ff3fe608060405260043610601e575f3560e01c806352a90c4214603c576038565b36603857345f8082825460309190609c565b925050819055005b5f80fd5b3480156046575f80fd5b50604d6061565b6040516058919060d5565b60405180910390f35b5f5481565b5f819050919050565b7f4e487b71000000000000000000000000000000000000000000000000000000005f52601160045260245ffd5b5f60a4826066565b915060ad836066565b925082820190508082111560c25760c1606f565b5b92915050565b60cf816066565b82525050565b5f60208201905060e65f83018460c8565b9291505056fea26469706673582212201392b782739643337ba542d900549b1da08624dea72e148341726963999895b864736f6c63430008150033",
  "immutableReferences": {},
  "source": "// SPDX-License-Identifier: SEE LICENSE IN LICENSE\r\npragma solidity ^0.8.14;\r\n\r\ncontract Sender {\r\n  receive() external payable {}\r\n\r\n  function withdrawTransfer(address payable _to) public {\r\n    _to.transfer(10); // ! will throw an error if fails.\r\n  }\r\n\r\n  function withdrawSend(address payable _to) public {\r\n    bool isSent = _to.send(10); // ! will return a boolean of whether it went through or not. won't fail.\r\n    require(isSent, \"Failed to send funds.\");\r\n  }\r\n}\r\n\r\ncontract ReceiverNoAction {\r\n  receive() external payable {}\r\n\r\n  function balance() public view returns(uint) {\r\n    return address(this).balance;\r\n  } \r\n}\r\n\r\ncontract ReceiverAction {\r\n  uint public balanceReceived;\r\n  \r\n  receive() external payable {\r\n    balanceReceived += msg.value;\r\n  }\r\n}",
  "sourcePath": "C:\\Users\\jung_\\Desktop\\Coding\\web3-projects\\web3-development-learning\\contracts\\section-5\\SendTransfer.sol",
  "compiler": {
    "name": "solc",
    "version": "0.8.21+commit.d9974bed.Emscripten.clang"
  },
  "schemaVersion": "3.4.16",
  "updatedAt": "2024-08-05T15:44:22.663Z",
  "devdoc": {
    "kind": "dev",
    "methods": {},
    "version": 1
  },
  "userdoc": {
    "kind": "user",
    "methods": {},
    "version": 1
  }
}