{
  "contractName": "ReceiverNoAction",
  "abi": [
    {
      "stateMutability": "payable",
      "type": "receive"
    },
    {
      "inputs": [],
      "name": "balance",
      "outputs": [
        {
          "internalType": "uint256",
          "name": "",
          "type": "uint256"
        }
      ],
      "stateMutability": "view",
      "type": "function"
    }
  ],
  "bytecode": "0x608060405234801561000f575f80fd5b5060b78061001c5f395ff3fe608060405260043610601e575f3560e01c8063b69ef8a8146028576024565b36602457005b5f80fd5b3480156032575f80fd5b506039604d565b60405160449190606a565b60405180910390f35b5f47905090565b5f819050919050565b6064816054565b82525050565b5f602082019050607b5f830184605d565b9291505056fea2646970667358221220d78fe399e3ccbb1a7904a386bbd94f8f9c20276a3dfe08213e97b7a625f2cb1964736f6c63430008150033",
  "immutableReferences": {},
  "source": "// SPDX-License-Identifier: SEE LICENSE IN LICENSE\r\npragma solidity ^0.8.14;\r\n\r\ncontract Sender {\r\n  receive() external payable {}\r\n\r\n  function withdrawTransfer(address payable _to) public {\r\n    _to.transfer(10); // ! will throw an error if fails.\r\n  }\r\n\r\n  function withdrawSend(address payable _to) public {\r\n    bool isSent = _to.send(10); // ! will return a boolean of whether it went through or not. won't fail.\r\n    require(isSent, \"Failed to send funds.\");\r\n  }\r\n}\r\n\r\ncontract ReceiverNoAction {\r\n  receive() external payable {}\r\n\r\n  function balance() public view returns(uint) {\r\n    return address(this).balance;\r\n  } \r\n}\r\n\r\ncontract ReceiverAction {\r\n  uint public balanceReceived;\r\n  \r\n  receive() external payable {\r\n    balanceReceived += msg.value;\r\n  }\r\n}",
  "sourcePath": "C:\\Users\\jung_\\Desktop\\Coding\\web3-projects\\web3-development-learning\\contracts\\section-5\\SendTransfer.sol",
  "compiler": {
    "name": "solc",
    "version": "0.8.21+commit.d9974bed.Emscripten.clang"
  },
  "schemaVersion": "3.4.16",
  "updatedAt": "2024-08-06T16:12:30.344Z",
  "devdoc": {
    "kind": "dev",
    "methods": {},
    "version": 1
  },
  "userdoc": {
    "kind": "user",
    "methods": {},
    "version": 1
  }
}