{
  "contractName": "SampleCallback",
  "abi": [
    {
      "stateMutability": "payable",
      "type": "fallback"
    },
    {
      "inputs": [],
      "name": "lastFunctionCalled",
      "outputs": [
        {
          "internalType": "string",
          "name": "",
          "type": "string"
        }
      ],
      "stateMutability": "view",
      "type": "function"
    },
    {
      "inputs": [],
      "name": "lastValueSent",
      "outputs": [
        {
          "internalType": "uint256",
          "name": "",
          "type": "uint256"
        }
      ],
      "stateMutability": "view",
      "type": "function"
    },
    {
      "inputs": [],
      "name": "myUint",
      "outputs": [
        {
          "internalType": "uint256",
          "name": "",
          "type": "uint256"
        }
      ],
      "stateMutability": "view",
      "type": "function"
    },
    {
      "stateMutability": "payable",
      "type": "receive"
    },
    {
      "inputs": [
        {
          "internalType": "uint256",
          "name": "_myNewUint",
          "type": "uint256"
        }
      ],
      "name": "setMyUint",
      "outputs": [],
      "stateMutability": "nonpayable",
      "type": "function"
    }
  ],
  "bytecode": "0x608060405234801561000f575f80fd5b506106868061001d5f395ff3fe608060405260043610610042575f3560e01c806306540f7e146100df5780635f94758614610109578063e36a665514610133578063e492fd841461015d57610093565b3661009357345f819055506040518060400160405280600781526020017f7265636569766500000000000000000000000000000000000000000000000000815250600190816100919190610460565b005b345f819055506040518060400160405280600881526020017f66616c6c6261636b000000000000000000000000000000000000000000000000815250600190816100dd9190610460565b005b3480156100ea575f80fd5b506100f3610185565b604051610100919061053e565b60405180910390f35b348015610114575f80fd5b5061011d61018b565b60405161012a91906105d7565b60405180910390f35b34801561013e575f80fd5b50610147610217565b604051610154919061053e565b60405180910390f35b348015610168575f80fd5b50610183600480360381019061017e9190610625565b61021c565b005b60025481565b600180546101989061028a565b80601f01602080910402602001604051908101604052809291908181526020018280546101c49061028a565b801561020f5780601f106101e65761010080835404028352916020019161020f565b820191905f5260205f20905b8154815290600101906020018083116101f257829003601f168201915b505050505081565b5f5481565b8060028190555050565b5f81519050919050565b7f4e487b71000000000000000000000000000000000000000000000000000000005f52604160045260245ffd5b7f4e487b71000000000000000000000000000000000000000000000000000000005f52602260045260245ffd5b5f60028204905060018216806102a157607f821691505b6020821081036102b4576102b361025d565b5b50919050565b5f819050815f5260205f209050919050565b5f6020601f8301049050919050565b5f82821b905092915050565b5f600883026103167fffffffffffffffffffffffffffffffffffffffffffffffffffffffffffffffff826102db565b61032086836102db565b95508019841693508086168417925050509392505050565b5f819050919050565b5f819050919050565b5f61036461035f61035a84610338565b610341565b610338565b9050919050565b5f819050919050565b61037d8361034a565b6103916103898261036b565b8484546102e7565b825550505050565b5f90565b6103a5610399565b6103b0818484610374565b505050565b5b818110156103d3576103c85f8261039d565b6001810190506103b6565b5050565b601f821115610418576103e9816102ba565b6103f2846102cc565b81016020851015610401578190505b61041561040d856102cc565b8301826103b5565b50505b505050565b5f82821c905092915050565b5f6104385f198460080261041d565b1980831691505092915050565b5f6104508383610429565b9150826002028217905092915050565b61046982610226565b67ffffffffffffffff81111561048257610481610230565b5b61048c825461028a565b6104978282856103d7565b5f60209050601f8311600181146104c8575f84156104b6578287015190505b6104c08582610445565b865550610527565b601f1984166104d6866102ba565b5f5b828110156104fd578489015182556001820191506020850194506020810190506104d8565b8683101561051a5784890151610516601f891682610429565b8355505b6001600288020188555050505b505050505050565b61053881610338565b82525050565b5f6020820190506105515f83018461052f565b92915050565b5f82825260208201905092915050565b5f5b83811015610584578082015181840152602081019050610569565b5f8484015250505050565b5f601f19601f8301169050919050565b5f6105a982610226565b6105b38185610557565b93506105c3818560208601610567565b6105cc8161058f565b840191505092915050565b5f6020820190508181035f8301526105ef818461059f565b905092915050565b5f80fd5b61060481610338565b811461060e575f80fd5b50565b5f8135905061061f816105fb565b92915050565b5f6020828403121561063a576106396105f7565b5b5f61064784828501610611565b9150509291505056fea264697066735822122085ff3a9594580860e961cec16fb9d8ed7d2f6e44be26f759d9e58014c5bcc3f664736f6c63430008150033",
  "immutableReferences": {},
  "source": "// SPDX-License-Identifier: SEE LICENSE IN LICENSE\r\npragma solidity ^0.8.14;\r\n\r\ncontract SampleCallback {\r\n  uint public lastValueSent;\r\n  string public lastFunctionCalled;\r\n  uint public myUint;\r\n\r\n  function setMyUint(uint _myNewUint) public {\r\n    myUint = _myNewUint;\r\n  }\r\n\r\n  // ! receive() isn't reliable, it uses little gas and any meaningful interaction requires too much gas.\r\n  // ! there cannot be any calldata send into the function -- needs a fallback function.\r\n  receive() external payable {\r\n    lastValueSent = msg.value;\r\n    lastFunctionCalled = \"receive\";\r\n  } \r\n\r\n  fallback() external payable {\r\n    lastValueSent = msg.value;\r\n    lastFunctionCalled = \"fallback\"; \r\n  }\r\n}",
  "sourcePath": "C:\\Users\\jung_\\Desktop\\Coding\\web3-projects\\web3-development-learning\\contracts\\section-4\\SampleCallback.sol",
  "compiler": {
    "name": "solc",
    "version": "0.8.21+commit.d9974bed.Emscripten.clang"
  },
  "schemaVersion": "3.4.16",
  "updatedAt": "2024-08-06T16:12:30.325Z",
  "devdoc": {
    "kind": "dev",
    "methods": {},
    "version": 1
  },
  "userdoc": {
    "kind": "user",
    "methods": {},
    "version": 1
  }
}