{
  "contractName": "Sender",
  "abi": [
    {
      "stateMutability": "payable",
      "type": "receive"
    },
    {
      "inputs": [
        {
          "internalType": "address payable",
          "name": "_to",
          "type": "address"
        }
      ],
      "name": "withdrawTransfer",
      "outputs": [],
      "stateMutability": "nonpayable",
      "type": "function"
    },
    {
      "inputs": [
        {
          "internalType": "address payable",
          "name": "_to",
          "type": "address"
        }
      ],
      "name": "withdrawSend",
      "outputs": [],
      "stateMutability": "nonpayable",
      "type": "function"
    }
  ],
  "bytecode": "0x608060405234801561000f575f80fd5b506102828061001d5f395ff3fe60806040526004361061002c575f3560e01c806320d68c5e14610037578063700d9df31461005f57610033565b3661003357005b5f80fd5b348015610042575f80fd5b5061005d600480360381019061005891906101a9565b610087565b005b34801561006a575f80fd5b50610085600480360381019061008091906101a9565b610103565b005b5f8173ffffffffffffffffffffffffffffffffffffffff166108fc600a90811502906040515f60405180830381858888f193505050509050806100ff576040517f08c379a00000000000000000000000000000000000000000000000000000000081526004016100f69061022e565b60405180910390fd5b5050565b8073ffffffffffffffffffffffffffffffffffffffff166108fc600a90811502906040515f60405180830381858888f19350505050158015610147573d5f803e3d5ffd5b5050565b5f80fd5b5f73ffffffffffffffffffffffffffffffffffffffff82169050919050565b5f6101788261014f565b9050919050565b6101888161016e565b8114610192575f80fd5b50565b5f813590506101a38161017f565b92915050565b5f602082840312156101be576101bd61014b565b5b5f6101cb84828501610195565b91505092915050565b5f82825260208201905092915050565b7f4661696c656420746f2073656e642066756e64732e00000000000000000000005f82015250565b5f6102186015836101d4565b9150610223826101e4565b602082019050919050565b5f6020820190508181035f8301526102458161020c565b905091905056fea264697066735822122050809acab9dcaaea344b67d81fb2bfc0d25bac57a37ddc81e6a05e5f360098d764736f6c63430008150033",
  "immutableReferences": {},
  "source": "// SPDX-License-Identifier: SEE LICENSE IN LICENSE\r\npragma solidity ^0.8.14;\r\n\r\ncontract Sender {\r\n  receive() external payable {}\r\n\r\n  function withdrawTransfer(address payable _to) public {\r\n    _to.transfer(10); // ! will throw an error if fails.\r\n  }\r\n\r\n  function withdrawSend(address payable _to) public {\r\n    bool isSent = _to.send(10); // ! will return a boolean of whether it went through or not. won't fail.\r\n    require(isSent, \"Failed to send funds.\");\r\n  }\r\n}\r\n\r\ncontract ReceiverNoAction {\r\n  receive() external payable {}\r\n\r\n  function balance() public view returns(uint) {\r\n    return address(this).balance;\r\n  } \r\n}\r\n\r\ncontract ReceiverAction {\r\n  uint public balanceReceived;\r\n  \r\n  receive() external payable {\r\n    balanceReceived += msg.value;\r\n  }\r\n}",
  "sourcePath": "C:\\Users\\jung_\\Desktop\\Coding\\web3-projects\\web3-development-learning\\contracts\\section-five\\SendTransfer.sol",
  "compiler": {
    "name": "solc",
    "version": "0.8.21+commit.d9974bed.Emscripten.clang"
  },
  "schemaVersion": "3.4.16",
  "updatedAt": "2024-08-05T14:18:49.813Z",
  "devdoc": {
    "kind": "dev",
    "methods": {},
    "version": 1
  },
  "userdoc": {
    "kind": "user",
    "methods": {},
    "version": 1
  }
}