{
  "contractName": "SmartWallet",
  "abi": [
    {
      "inputs": [],
      "stateMutability": "nonpayable",
      "type": "constructor"
    },
    {
      "inputs": [],
      "name": "confirmationsFromGuardiansForReset",
      "outputs": [
        {
          "internalType": "uint256",
          "name": "",
          "type": "uint256"
        }
      ],
      "stateMutability": "view",
      "type": "function"
    },
    {
      "inputs": [
        {
          "internalType": "address",
          "name": "",
          "type": "address"
        }
      ],
      "name": "guardians",
      "outputs": [
        {
          "internalType": "bool",
          "name": "",
          "type": "bool"
        }
      ],
      "stateMutability": "view",
      "type": "function"
    },
    {
      "inputs": [],
      "name": "guardiansResetCount",
      "outputs": [
        {
          "internalType": "uint256",
          "name": "",
          "type": "uint256"
        }
      ],
      "stateMutability": "view",
      "type": "function"
    },
    {
      "inputs": [
        {
          "internalType": "address",
          "name": "",
          "type": "address"
        }
      ],
      "name": "isAllowedToSend",
      "outputs": [
        {
          "internalType": "bool",
          "name": "",
          "type": "bool"
        }
      ],
      "stateMutability": "view",
      "type": "function"
    },
    {
      "inputs": [
        {
          "internalType": "address",
          "name": "",
          "type": "address"
        }
      ],
      "name": "userAllowance",
      "outputs": [
        {
          "internalType": "uint256",
          "name": "",
          "type": "uint256"
        }
      ],
      "stateMutability": "view",
      "type": "function"
    },
    {
      "stateMutability": "payable",
      "type": "receive"
    },
    {
      "inputs": [
        {
          "internalType": "address",
          "name": "_guardian",
          "type": "address"
        },
        {
          "internalType": "bool",
          "name": "_isGuardian",
          "type": "bool"
        }
      ],
      "name": "setGuardian",
      "outputs": [],
      "stateMutability": "nonpayable",
      "type": "function"
    },
    {
      "inputs": [
        {
          "internalType": "address payable",
          "name": "_newOwner",
          "type": "address"
        }
      ],
      "name": "proposeNewOwner",
      "outputs": [],
      "stateMutability": "nonpayable",
      "type": "function"
    },
    {
      "inputs": [
        {
          "internalType": "address payable",
          "name": "_to",
          "type": "address"
        },
        {
          "internalType": "uint256",
          "name": "_amount",
          "type": "uint256"
        },
        {
          "internalType": "bytes",
          "name": "_payload",
          "type": "bytes"
        }
      ],
      "name": "transfer",
      "outputs": [
        {
          "internalType": "bytes",
          "name": "",
          "type": "bytes"
        }
      ],
      "stateMutability": "nonpayable",
      "type": "function"
    },
    {
      "inputs": [],
      "name": "getBalance",
      "outputs": [
        {
          "internalType": "uint256",
          "name": "",
          "type": "uint256"
        }
      ],
      "stateMutability": "view",
      "type": "function"
    },
    {
      "inputs": [
        {
          "internalType": "address",
          "name": "_userAddress",
          "type": "address"
        },
        {
          "internalType": "uint256",
          "name": "_allowanceAmount",
          "type": "uint256"
        }
      ],
      "name": "setUserAllowance",
      "outputs": [],
      "stateMutability": "nonpayable",
      "type": "function"
    }
  ],
  "bytecode": "0x608060405234801561000f575f80fd5b50335f806101000a81548173ffffffffffffffffffffffffffffffffffffffff021916908373ffffffffffffffffffffffffffffffffffffffff1602179055506114dd8061005c5f395ff3fe608060405260043610610094575f3560e01c806383012be11161005857806383012be1146101a5578063b1f8100d146101cf578063be45fd62146101f7578063de782c8e14610233578063fb0fc0761461025d5761009b565b80630633b14a1461009f5780630bc605ad146100db5780630c6b2cbf1461011757806312065fe0146101535780632b8a1c5a1461017d5761009b565b3661009b57005b5f80fd5b3480156100aa575f80fd5b506100c560048036038101906100c09190610b4f565b610285565b6040516100d29190610b94565b60405180910390f35b3480156100e6575f80fd5b5061010160048036038101906100fc9190610b4f565b6102a2565b60405161010e9190610b94565b60405180910390f35b348015610122575f80fd5b5061013d60048036038101906101389190610b4f565b6102bf565b60405161014a9190610bc5565b60405180910390f35b34801561015e575f80fd5b506101676102d4565b6040516101749190610bc5565b60405180910390f35b348015610188575f80fd5b506101a3600480360381019061019e9190610c08565b6102db565b005b3480156101b0575f80fd5b506101b96103c0565b6040516101c69190610bc5565b60405180910390f35b3480156101da575f80fd5b506101f560048036038101906101f09190610c81565b6103c5565b005b348015610202575f80fd5b5061021d60048036038101906102189190610e12565b610704565b60405161022a9190610ef8565b60405180910390f35b34801561023e575f80fd5b506102476109b6565b6040516102549190610bc5565b60405180910390f35b348015610268575f80fd5b50610283600480360381019061027e9190610f18565b6109bc565b005b6005602052805f5260405f205f915054906101000a900460ff1681565b6004602052805f5260405f205f915054906101000a900460ff1681565b6003602052805f5260405f205f915090505481565b5f47905090565b5f8054906101000a900473ffffffffffffffffffffffffffffffffffffffff1673ffffffffffffffffffffffffffffffffffffffff163373ffffffffffffffffffffffffffffffffffffffff1614610368576040517f08c379a000000000000000000000000000000000000000000000000000000000815260040161035f90610fd6565b60405180910390fd5b8060055f8473ffffffffffffffffffffffffffffffffffffffff1673ffffffffffffffffffffffffffffffffffffffff1681526020019081526020015f205f6101000a81548160ff0219169083151502179055505050565b600381565b60055f3373ffffffffffffffffffffffffffffffffffffffff1673ffffffffffffffffffffffffffffffffffffffff1681526020019081526020015f205f9054906101000a900460ff1661044e576040517f08c379a000000000000000000000000000000000000000000000000000000000815260040161044590611064565b60405180910390fd5b60065f8273ffffffffffffffffffffffffffffffffffffffff1673ffffffffffffffffffffffffffffffffffffffff1681526020019081526020015f205f3373ffffffffffffffffffffffffffffffffffffffff1673ffffffffffffffffffffffffffffffffffffffff1681526020019081526020015f205f9054906101000a900460ff1615610513576040517f08c379a000000000000000000000000000000000000000000000000000000000815260040161050a906110f2565b60405180910390fd5b600160065f8373ffffffffffffffffffffffffffffffffffffffff1673ffffffffffffffffffffffffffffffffffffffff1681526020019081526020015f205f3373ffffffffffffffffffffffffffffffffffffffff1673ffffffffffffffffffffffffffffffffffffffff1681526020019081526020015f205f6101000a81548160ff02191690831515021790555060015f9054906101000a900473ffffffffffffffffffffffffffffffffffffffff1673ffffffffffffffffffffffffffffffffffffffff168173ffffffffffffffffffffffffffffffffffffffff161461063f578060015f6101000a81548173ffffffffffffffffffffffffffffffffffffffff021916908373ffffffffffffffffffffffffffffffffffffffff1602179055505f6002819055505b60025f8154809291906106519061113d565b91905055506003600254106107015760015f9054906101000a900473ffffffffffffffffffffffffffffffffffffffff165f806101000a81548173ffffffffffffffffffffffffffffffffffffffff021916908373ffffffffffffffffffffffffffffffffffffffff1602179055505f60015f6101000a81548173ffffffffffffffffffffffffffffffffffffffff021916908373ffffffffffffffffffffffffffffffffffffffff1602179055505b50565b60608261070f6102d4565b1015610750576040517f08c379a0000000000000000000000000000000000000000000000000000000008152600401610747906111ce565b60405180910390fd5b5f8054906101000a900473ffffffffffffffffffffffffffffffffffffffff1673ffffffffffffffffffffffffffffffffffffffff163373ffffffffffffffffffffffffffffffffffffffff16146108fe5760045f3373ffffffffffffffffffffffffffffffffffffffff1673ffffffffffffffffffffffffffffffffffffffff1681526020019081526020015f205f9054906101000a900460ff1661082b576040517f08c379a00000000000000000000000000000000000000000000000000000000081526004016108229061125c565b60405180910390fd5b8260035f3373ffffffffffffffffffffffffffffffffffffffff1673ffffffffffffffffffffffffffffffffffffffff1681526020019081526020015f2054106108aa576040517f08c379a00000000000000000000000000000000000000000000000000000000081526004016108a1906112ea565b60405180910390fd5b8260035f3373ffffffffffffffffffffffffffffffffffffffff1673ffffffffffffffffffffffffffffffffffffffff1681526020019081526020015f205f8282546108f69190611308565b925050819055505b5f808573ffffffffffffffffffffffffffffffffffffffff1685856040516109269190611375565b5f6040518083038185875af1925050503d805f8114610960576040519150601f19603f3d011682016040523d82523d5f602084013e610965565b606091505b5091509150816109aa576040517f08c379a00000000000000000000000000000000000000000000000000000000081526004016109a1906113fb565b60405180910390fd5b80925050509392505050565b60025481565b5f8054906101000a900473ffffffffffffffffffffffffffffffffffffffff1673ffffffffffffffffffffffffffffffffffffffff163373ffffffffffffffffffffffffffffffffffffffff1614610a49576040517f08c379a0000000000000000000000000000000000000000000000000000000008152600401610a4090611489565b60405180910390fd5b600160045f8473ffffffffffffffffffffffffffffffffffffffff1673ffffffffffffffffffffffffffffffffffffffff1681526020019081526020015f205f6101000a81548160ff0219169083151502179055508060035f8473ffffffffffffffffffffffffffffffffffffffff1673ffffffffffffffffffffffffffffffffffffffff1681526020019081526020015f20819055505050565b5f604051905090565b5f80fd5b5f80fd5b5f73ffffffffffffffffffffffffffffffffffffffff82169050919050565b5f610b1e82610af5565b9050919050565b610b2e81610b14565b8114610b38575f80fd5b50565b5f81359050610b4981610b25565b92915050565b5f60208284031215610b6457610b63610aed565b5b5f610b7184828501610b3b565b91505092915050565b5f8115159050919050565b610b8e81610b7a565b82525050565b5f602082019050610ba75f830184610b85565b92915050565b5f819050919050565b610bbf81610bad565b82525050565b5f602082019050610bd85f830184610bb6565b92915050565b610be781610b7a565b8114610bf1575f80fd5b50565b5f81359050610c0281610bde565b92915050565b5f8060408385031215610c1e57610c1d610aed565b5b5f610c2b85828601610b3b565b9250506020610c3c85828601610bf4565b9150509250929050565b5f610c5082610af5565b9050919050565b610c6081610c46565b8114610c6a575f80fd5b50565b5f81359050610c7b81610c57565b92915050565b5f60208284031215610c9657610c95610aed565b5b5f610ca384828501610c6d565b91505092915050565b610cb581610bad565b8114610cbf575f80fd5b50565b5f81359050610cd081610cac565b92915050565b5f80fd5b5f80fd5b5f601f19601f8301169050919050565b7f4e487b71000000000000000000000000000000000000000000000000000000005f52604160045260245ffd5b610d2482610cde565b810181811067ffffffffffffffff82111715610d4357610d42610cee565b5b80604052505050565b5f610d55610ae4565b9050610d618282610d1b565b919050565b5f67ffffffffffffffff821115610d8057610d7f610cee565b5b610d8982610cde565b9050602081019050919050565b828183375f83830152505050565b5f610db6610db184610d66565b610d4c565b905082815260208101848484011115610dd257610dd1610cda565b5b610ddd848285610d96565b509392505050565b5f82601f830112610df957610df8610cd6565b5b8135610e09848260208601610da4565b91505092915050565b5f805f60608486031215610e2957610e28610aed565b5b5f610e3686828701610c6d565b9350506020610e4786828701610cc2565b925050604084013567ffffffffffffffff811115610e6857610e67610af1565b5b610e7486828701610de5565b9150509250925092565b5f81519050919050565b5f82825260208201905092915050565b5f5b83811015610eb5578082015181840152602081019050610e9a565b5f8484015250505050565b5f610eca82610e7e565b610ed48185610e88565b9350610ee4818560208601610e98565b610eed81610cde565b840191505092915050565b5f6020820190508181035f830152610f108184610ec0565b905092915050565b5f8060408385031215610f2e57610f2d610aed565b5b5f610f3b85828601610b3b565b9250506020610f4c85828601610cc2565b9150509250929050565b5f82825260208201905092915050565b7f4f6e6c7920746865206f776e65722063616e20736574206120677561726469615f8201527f6e2e000000000000000000000000000000000000000000000000000000000000602082015250565b5f610fc0602283610f56565b9150610fcb82610f66565b604082019050919050565b5f6020820190508181035f830152610fed81610fb4565b9050919050565b7f596f7520617265206e6f74206120677561726469616e206f66207468697320635f8201527f6f6e74726163742e000000000000000000000000000000000000000000000000602082015250565b5f61104e602883610f56565b915061105982610ff4565b604082019050919050565b5f6020820190508181035f83015261107b81611042565b9050919050565b7f596f75206861766520616c726561647920636173746564206120766f746520665f8201527f6f72207468697320616464726573732e00000000000000000000000000000000602082015250565b5f6110dc603083610f56565b91506110e782611082565b604082019050919050565b5f6020820190508181035f830152611109816110d0565b9050919050565b7f4e487b71000000000000000000000000000000000000000000000000000000005f52601160045260245ffd5b5f61114782610bad565b91507fffffffffffffffffffffffffffffffffffffffffffffffffffffffffffffffff820361117957611178611110565b5b600182019050919050565b7f496e73756666696369656e742066756e64732e000000000000000000000000005f82015250565b5f6111b8601383610f56565b91506111c382611184565b602082019050919050565b5f6020820190508181035f8301526111e5816111ac565b9050919050565b7f596f7520617265206e6f7420616c6c6f77656420746f2073656e642066756e645f8201527f732e000000000000000000000000000000000000000000000000000000000000602082015250565b5f611246602283610f56565b9150611251826111ec565b604082019050919050565b5f6020820190508181035f8301526112738161123a565b9050919050565b7f596f7520617265207370656e64696e67206d6f7265207468616e20796f7572205f8201527f616c6c6f77616e63652e00000000000000000000000000000000000000000000602082015250565b5f6112d4602a83610f56565b91506112df8261127a565b604082019050919050565b5f6020820190508181035f830152611301816112c8565b9050919050565b5f61131282610bad565b915061131d83610bad565b925082820390508181111561133557611334611110565b5b92915050565b5f81905092915050565b5f61134f82610e7e565b611359818561133b565b9350611369818560208601610e98565b80840191505092915050565b5f6113808284611345565b915081905092915050565b7f41626f7274696e672c2063616c6c20776173206e6f207375636365737366756c5f8201527f2e00000000000000000000000000000000000000000000000000000000000000602082015250565b5f6113e5602183610f56565b91506113f08261138b565b604082019050919050565b5f6020820190508181035f830152611412816113d9565b9050919050565b7f4f6e6c7920746865206f776e65722063616e2073657420616e20616c6c6f77615f8201527f6e63652e00000000000000000000000000000000000000000000000000000000602082015250565b5f611473602483610f56565b915061147e82611419565b604082019050919050565b5f6020820190508181035f8301526114a081611467565b905091905056fea26469706673582212209afa2b9600f2d8010aea40d321f2d870c14b3fa21562813dc73b4cf84096e4b664736f6c63430008150033",
  "immutableReferences": {},
  "source": "// SPDX-License-Identifier: SEE LICENSE IN LICENSE\r\npragma solidity ^0.8.14;\r\n\r\ncontract Consumer {\r\n  function getBalance() public view returns(uint) {\r\n    return address(this).balance;\r\n  }\r\n\r\n  function deposit() public payable {}\r\n}\r\n\r\ncontract SmartWallet {\r\n  address payable owner;\r\n  address payable nextOwner;\r\n  uint public guardiansResetCount;\r\n  uint public constant confirmationsFromGuardiansForReset = 3;\r\n\r\n  mapping(address => uint) public userAllowance;\r\n  mapping(address => bool) public isAllowedToSend;\r\n  mapping(address => bool) public guardians;\r\n  mapping(address => mapping(address => bool)) hasVoted;\r\n\r\n  constructor() { owner = payable(msg.sender); }\r\n\r\n  function setGuardian(address _guardian, bool _isGuardian) public {\r\n    require(msg.sender == owner, \"Only the owner can set a guardian.\");\r\n    guardians[_guardian] = _isGuardian;\r\n  }\r\n\r\n  function proposeNewOwner(address payable _newOwner) public {\r\n    require(guardians[msg.sender], \"You are not a guardian of this contract.\");\r\n    require(!hasVoted[_newOwner][msg.sender], \"You have already casted a vote for this address.\");\r\n\r\n    hasVoted[_newOwner][msg.sender] = true;\r\n\r\n    if (_newOwner != nextOwner) {\r\n      nextOwner = _newOwner; \r\n      guardiansResetCount = 0;\r\n    }\r\n\r\n    guardiansResetCount++;\r\n\r\n    if (guardiansResetCount >= confirmationsFromGuardiansForReset) {\r\n      owner = nextOwner;\r\n      nextOwner = payable(address(0));\r\n    }\r\n  }\r\n\r\n  receive() external payable {}\r\n\r\n  function transfer(address payable _to, uint _amount, bytes memory _payload) public returns(bytes memory) {\r\n    require(getBalance() >= _amount, \"Insufficient funds.\");\r\n    if (msg.sender != owner) {\r\n      require(isAllowedToSend[msg.sender], \"You are not allowed to send funds.\");\r\n      require(userAllowance[msg.sender] < _amount, \"You are spending more than your allowance.\");\r\n      userAllowance[msg.sender] -= _amount;\r\n    }\r\n\r\n    (bool success, bytes memory returnData) = _to.call{value: _amount}(_payload);\r\n    require(success, \"Aborting, call was no successful.\");\r\n\r\n    return returnData;\r\n  }\r\n\r\n  function getBalance() public view returns(uint) {\r\n    return address(this).balance;\r\n  }\r\n\r\n  function setUserAllowance(address _userAddress, uint _allowanceAmount) public {\r\n    require(msg.sender == owner, \"Only the owner can set an allowance.\");\r\n    isAllowedToSend[_userAddress] = true;\r\n    userAllowance[_userAddress] = _allowanceAmount;\r\n  }\r\n}",
  "sourcePath": "C:\\Users\\jung_\\Desktop\\Coding\\web3-projects\\web3-development-learning\\contracts\\section-5\\SmartWallet.sol",
  "compiler": {
    "name": "solc",
    "version": "0.8.21+commit.d9974bed.Emscripten.clang"
  },
  "schemaVersion": "3.4.16",
  "updatedAt": "2024-08-05T19:35:25.013Z",
  "devdoc": {
    "kind": "dev",
    "methods": {},
    "version": 1
  },
  "userdoc": {
    "kind": "user",
    "methods": {},
    "version": 1
  }
}