{
  "contractName": "SmartWallet",
  "abi": [
    {
      "inputs": [],
      "stateMutability": "nonpayable",
      "type": "constructor"
    },
    {
      "inputs": [],
      "name": "confirmationsFromGuardiansForReset",
      "outputs": [
        {
          "internalType": "uint256",
          "name": "",
          "type": "uint256"
        }
      ],
      "stateMutability": "view",
      "type": "function",
      "constant": true
    },
    {
      "inputs": [
        {
          "internalType": "address",
          "name": "",
          "type": "address"
        }
      ],
      "name": "guardians",
      "outputs": [
        {
          "internalType": "bool",
          "name": "",
          "type": "bool"
        }
      ],
      "stateMutability": "view",
      "type": "function",
      "constant": true
    },
    {
      "inputs": [
        {
          "internalType": "address",
          "name": "",
          "type": "address"
        }
      ],
      "name": "isAllowedToSend",
      "outputs": [
        {
          "internalType": "bool",
          "name": "",
          "type": "bool"
        }
      ],
      "stateMutability": "view",
      "type": "function",
      "constant": true
    },
    {
      "inputs": [
        {
          "internalType": "address",
          "name": "",
          "type": "address"
        }
      ],
      "name": "userAllowance",
      "outputs": [
        {
          "internalType": "uint256",
          "name": "",
          "type": "uint256"
        }
      ],
      "stateMutability": "view",
      "type": "function",
      "constant": true
    },
    {
      "stateMutability": "payable",
      "type": "receive",
      "payable": true
    },
    {
      "inputs": [
        {
          "internalType": "address",
          "name": "_guardian",
          "type": "address"
        },
        {
          "internalType": "bool",
          "name": "_isGuardian",
          "type": "bool"
        }
      ],
      "name": "setGuardian",
      "outputs": [],
      "stateMutability": "nonpayable",
      "type": "function"
    },
    {
      "inputs": [
        {
          "internalType": "address payable",
          "name": "_newOwner",
          "type": "address"
        }
      ],
      "name": "proposeNewOwner",
      "outputs": [],
      "stateMutability": "nonpayable",
      "type": "function"
    },
    {
      "inputs": [
        {
          "internalType": "address payable",
          "name": "_to",
          "type": "address"
        },
        {
          "internalType": "uint256",
          "name": "_amount",
          "type": "uint256"
        },
        {
          "internalType": "bytes",
          "name": "_payload",
          "type": "bytes"
        }
      ],
      "name": "transfer",
      "outputs": [
        {
          "internalType": "bytes",
          "name": "",
          "type": "bytes"
        }
      ],
      "stateMutability": "nonpayable",
      "type": "function"
    },
    {
      "inputs": [],
      "name": "getBalance",
      "outputs": [
        {
          "internalType": "uint256",
          "name": "",
          "type": "uint256"
        }
      ],
      "stateMutability": "view",
      "type": "function",
      "constant": true
    },
    {
      "inputs": [
        {
          "internalType": "address",
          "name": "_userAddress",
          "type": "address"
        },
        {
          "internalType": "uint256",
          "name": "_allowanceAmount",
          "type": "uint256"
        }
      ],
      "name": "setUserAllowance",
      "outputs": [],
      "stateMutability": "nonpayable",
      "type": "function"
    }
  ],
  "bytecode": "0x608060405234801561000f575f80fd5b50335f806101000a81548173ffffffffffffffffffffffffffffffffffffffff021916908373ffffffffffffffffffffffffffffffffffffffff1602179055506114a28061005c5f395ff3fe608060405260043610610089575f3560e01c80632b8a1c5a116100585780632b8a1c5a1461017257806383012be11461019a578063b1f8100d146101c4578063be45fd62146101ec578063fb0fc0761461022857610090565b80630633b14a146100945780630bc605ad146100d05780630c6b2cbf1461010c57806312065fe01461014857610090565b3661009057005b5f80fd5b34801561009f575f80fd5b506100ba60048036038101906100b59190610b14565b610250565b6040516100c79190610b59565b60405180910390f35b3480156100db575f80fd5b506100f660048036038101906100f19190610b14565b61026d565b6040516101039190610b59565b60405180910390f35b348015610117575f80fd5b50610132600480360381019061012d9190610b14565b61028a565b60405161013f9190610b8a565b60405180910390f35b348015610153575f80fd5b5061015c61029f565b6040516101699190610b8a565b60405180910390f35b34801561017d575f80fd5b5061019860048036038101906101939190610bcd565b6102a6565b005b3480156101a5575f80fd5b506101ae61038b565b6040516101bb9190610b8a565b60405180910390f35b3480156101cf575f80fd5b506101ea60048036038101906101e59190610c46565b610390565b005b3480156101f7575f80fd5b50610212600480360381019061020d9190610dd7565b6106cf565b60405161021f9190610ebd565b60405180910390f35b348015610233575f80fd5b5061024e60048036038101906102499190610edd565b610981565b005b6005602052805f5260405f205f915054906101000a900460ff1681565b6004602052805f5260405f205f915054906101000a900460ff1681565b6003602052805f5260405f205f915090505481565b5f47905090565b5f8054906101000a900473ffffffffffffffffffffffffffffffffffffffff1673ffffffffffffffffffffffffffffffffffffffff163373ffffffffffffffffffffffffffffffffffffffff1614610333576040517f08c379a000000000000000000000000000000000000000000000000000000000815260040161032a90610f9b565b60405180910390fd5b8060055f8473ffffffffffffffffffffffffffffffffffffffff1673ffffffffffffffffffffffffffffffffffffffff1681526020019081526020015f205f6101000a81548160ff0219169083151502179055505050565b600381565b60055f3373ffffffffffffffffffffffffffffffffffffffff1673ffffffffffffffffffffffffffffffffffffffff1681526020019081526020015f205f9054906101000a900460ff16610419576040517f08c379a000000000000000000000000000000000000000000000000000000000815260040161041090611029565b60405180910390fd5b60065f8273ffffffffffffffffffffffffffffffffffffffff1673ffffffffffffffffffffffffffffffffffffffff1681526020019081526020015f205f3373ffffffffffffffffffffffffffffffffffffffff1673ffffffffffffffffffffffffffffffffffffffff1681526020019081526020015f205f9054906101000a900460ff16156104de576040517f08c379a00000000000000000000000000000000000000000000000000000000081526004016104d5906110b7565b60405180910390fd5b600160065f8373ffffffffffffffffffffffffffffffffffffffff1673ffffffffffffffffffffffffffffffffffffffff1681526020019081526020015f205f3373ffffffffffffffffffffffffffffffffffffffff1673ffffffffffffffffffffffffffffffffffffffff1681526020019081526020015f205f6101000a81548160ff02191690831515021790555060015f9054906101000a900473ffffffffffffffffffffffffffffffffffffffff1673ffffffffffffffffffffffffffffffffffffffff168173ffffffffffffffffffffffffffffffffffffffff161461060a578060015f6101000a81548173ffffffffffffffffffffffffffffffffffffffff021916908373ffffffffffffffffffffffffffffffffffffffff1602179055505f6002819055505b60025f81548092919061061c90611102565b91905055506003600254106106cc5760015f9054906101000a900473ffffffffffffffffffffffffffffffffffffffff165f806101000a81548173ffffffffffffffffffffffffffffffffffffffff021916908373ffffffffffffffffffffffffffffffffffffffff1602179055505f60015f6101000a81548173ffffffffffffffffffffffffffffffffffffffff021916908373ffffffffffffffffffffffffffffffffffffffff1602179055505b50565b6060826106da61029f565b101561071b576040517f08c379a000000000000000000000000000000000000000000000000000000000815260040161071290611193565b60405180910390fd5b5f8054906101000a900473ffffffffffffffffffffffffffffffffffffffff1673ffffffffffffffffffffffffffffffffffffffff163373ffffffffffffffffffffffffffffffffffffffff16146108c95760045f3373ffffffffffffffffffffffffffffffffffffffff1673ffffffffffffffffffffffffffffffffffffffff1681526020019081526020015f205f9054906101000a900460ff166107f6576040517f08c379a00000000000000000000000000000000000000000000000000000000081526004016107ed90611221565b60405180910390fd5b8260035f3373ffffffffffffffffffffffffffffffffffffffff1673ffffffffffffffffffffffffffffffffffffffff1681526020019081526020015f205410610875576040517f08c379a000000000000000000000000000000000000000000000000000000000815260040161086c906112af565b60405180910390fd5b8260035f3373ffffffffffffffffffffffffffffffffffffffff1673ffffffffffffffffffffffffffffffffffffffff1681526020019081526020015f205f8282546108c191906112cd565b925050819055505b5f808573ffffffffffffffffffffffffffffffffffffffff1685856040516108f1919061133a565b5f6040518083038185875af1925050503d805f811461092b576040519150601f19603f3d011682016040523d82523d5f602084013e610930565b606091505b509150915081610975576040517f08c379a000000000000000000000000000000000000000000000000000000000815260040161096c906113c0565b60405180910390fd5b80925050509392505050565b5f8054906101000a900473ffffffffffffffffffffffffffffffffffffffff1673ffffffffffffffffffffffffffffffffffffffff163373ffffffffffffffffffffffffffffffffffffffff1614610a0e576040517f08c379a0000000000000000000000000000000000000000000000000000000008152600401610a059061144e565b60405180910390fd5b600160045f8473ffffffffffffffffffffffffffffffffffffffff1673ffffffffffffffffffffffffffffffffffffffff1681526020019081526020015f205f6101000a81548160ff0219169083151502179055508060035f8473ffffffffffffffffffffffffffffffffffffffff1673ffffffffffffffffffffffffffffffffffffffff1681526020019081526020015f20819055505050565b5f604051905090565b5f80fd5b5f80fd5b5f73ffffffffffffffffffffffffffffffffffffffff82169050919050565b5f610ae382610aba565b9050919050565b610af381610ad9565b8114610afd575f80fd5b50565b5f81359050610b0e81610aea565b92915050565b5f60208284031215610b2957610b28610ab2565b5b5f610b3684828501610b00565b91505092915050565b5f8115159050919050565b610b5381610b3f565b82525050565b5f602082019050610b6c5f830184610b4a565b92915050565b5f819050919050565b610b8481610b72565b82525050565b5f602082019050610b9d5f830184610b7b565b92915050565b610bac81610b3f565b8114610bb6575f80fd5b50565b5f81359050610bc781610ba3565b92915050565b5f8060408385031215610be357610be2610ab2565b5b5f610bf085828601610b00565b9250506020610c0185828601610bb9565b9150509250929050565b5f610c1582610aba565b9050919050565b610c2581610c0b565b8114610c2f575f80fd5b50565b5f81359050610c4081610c1c565b92915050565b5f60208284031215610c5b57610c5a610ab2565b5b5f610c6884828501610c32565b91505092915050565b610c7a81610b72565b8114610c84575f80fd5b50565b5f81359050610c9581610c71565b92915050565b5f80fd5b5f80fd5b5f601f19601f8301169050919050565b7f4e487b71000000000000000000000000000000000000000000000000000000005f52604160045260245ffd5b610ce982610ca3565b810181811067ffffffffffffffff82111715610d0857610d07610cb3565b5b80604052505050565b5f610d1a610aa9565b9050610d268282610ce0565b919050565b5f67ffffffffffffffff821115610d4557610d44610cb3565b5b610d4e82610ca3565b9050602081019050919050565b828183375f83830152505050565b5f610d7b610d7684610d2b565b610d11565b905082815260208101848484011115610d9757610d96610c9f565b5b610da2848285610d5b565b509392505050565b5f82601f830112610dbe57610dbd610c9b565b5b8135610dce848260208601610d69565b91505092915050565b5f805f60608486031215610dee57610ded610ab2565b5b5f610dfb86828701610c32565b9350506020610e0c86828701610c87565b925050604084013567ffffffffffffffff811115610e2d57610e2c610ab6565b5b610e3986828701610daa565b9150509250925092565b5f81519050919050565b5f82825260208201905092915050565b5f5b83811015610e7a578082015181840152602081019050610e5f565b5f8484015250505050565b5f610e8f82610e43565b610e998185610e4d565b9350610ea9818560208601610e5d565b610eb281610ca3565b840191505092915050565b5f6020820190508181035f830152610ed58184610e85565b905092915050565b5f8060408385031215610ef357610ef2610ab2565b5b5f610f0085828601610b00565b9250506020610f1185828601610c87565b9150509250929050565b5f82825260208201905092915050565b7f4f6e6c7920746865206f776e65722063616e20736574206120677561726469615f8201527f6e2e000000000000000000000000000000000000000000000000000000000000602082015250565b5f610f85602283610f1b565b9150610f9082610f2b565b604082019050919050565b5f6020820190508181035f830152610fb281610f79565b9050919050565b7f596f7520617265206e6f74206120677561726469616e206f66207468697320635f8201527f6f6e74726163742e000000000000000000000000000000000000000000000000602082015250565b5f611013602883610f1b565b915061101e82610fb9565b604082019050919050565b5f6020820190508181035f83015261104081611007565b9050919050565b7f596f75206861766520616c726561647920636173746564206120766f746520665f8201527f6f72207468697320616464726573732e00000000000000000000000000000000602082015250565b5f6110a1603083610f1b565b91506110ac82611047565b604082019050919050565b5f6020820190508181035f8301526110ce81611095565b9050919050565b7f4e487b71000000000000000000000000000000000000000000000000000000005f52601160045260245ffd5b5f61110c82610b72565b91507fffffffffffffffffffffffffffffffffffffffffffffffffffffffffffffffff820361113e5761113d6110d5565b5b600182019050919050565b7f496e73756666696369656e742066756e64732e000000000000000000000000005f82015250565b5f61117d601383610f1b565b915061118882611149565b602082019050919050565b5f6020820190508181035f8301526111aa81611171565b9050919050565b7f596f7520617265206e6f7420616c6c6f77656420746f2073656e642066756e645f8201527f732e000000000000000000000000000000000000000000000000000000000000602082015250565b5f61120b602283610f1b565b9150611216826111b1565b604082019050919050565b5f6020820190508181035f830152611238816111ff565b9050919050565b7f596f7520617265207370656e64696e67206d6f7265207468616e20796f7572205f8201527f616c6c6f77616e63652e00000000000000000000000000000000000000000000602082015250565b5f611299602a83610f1b565b91506112a48261123f565b604082019050919050565b5f6020820190508181035f8301526112c68161128d565b9050919050565b5f6112d782610b72565b91506112e283610b72565b92508282039050818111156112fa576112f96110d5565b5b92915050565b5f81905092915050565b5f61131482610e43565b61131e8185611300565b935061132e818560208601610e5d565b80840191505092915050565b5f611345828461130a565b915081905092915050565b7f41626f7274696e672c2063616c6c20776173206e6f207375636365737366756c5f8201527f2e00000000000000000000000000000000000000000000000000000000000000602082015250565b5f6113aa602183610f1b565b91506113b582611350565b604082019050919050565b5f6020820190508181035f8301526113d78161139e565b9050919050565b7f4f6e6c7920746865206f776e65722063616e2073657420616e20616c6c6f77615f8201527f6e63652e00000000000000000000000000000000000000000000000000000000602082015250565b5f611438602483610f1b565b9150611443826113de565b604082019050919050565b5f6020820190508181035f8301526114658161142c565b905091905056fea2646970667358221220134482644dcea1ed23d0ec2d7d07bdaf75877485196d95103ecec3df0c14587564736f6c63430008150033",
  "immutableReferences": {},
  "source": "// SPDX-License-Identifier: SEE LICENSE IN LICENSE\r\npragma solidity ^0.8.14;\r\n\r\ncontract SmartWallet {\r\n  address payable owner;\r\n  address payable nextOwner;\r\n  uint guardiansResetCount;\r\n  uint public constant confirmationsFromGuardiansForReset = 3;\r\n\r\n  mapping(address => uint) public userAllowance;\r\n  mapping(address => bool) public isAllowedToSend;\r\n  mapping(address => bool) public guardians;\r\n  mapping(address => mapping(address => bool)) hasVoted;\r\n\r\n  constructor() { owner = payable(msg.sender); }\r\n\r\n  function setGuardian(address _guardian, bool _isGuardian) public {\r\n    require(msg.sender == owner, \"Only the owner can set a guardian.\");\r\n    guardians[_guardian] = _isGuardian;\r\n  }\r\n\r\n  function proposeNewOwner(address payable _newOwner) public {\r\n    require(guardians[msg.sender], \"You are not a guardian of this contract.\");\r\n    require(!hasVoted[_newOwner][msg.sender], \"You have already casted a vote for this address.\");\r\n\r\n    hasVoted[_newOwner][msg.sender] = true;\r\n\r\n    if (_newOwner != nextOwner) {\r\n      nextOwner = _newOwner; \r\n      guardiansResetCount = 0;\r\n    }\r\n\r\n    guardiansResetCount++;\r\n\r\n    if (guardiansResetCount >= confirmationsFromGuardiansForReset) {\r\n      owner = nextOwner;\r\n      nextOwner = payable(address(0));\r\n    }\r\n  }\r\n\r\n  receive() external payable {}\r\n\r\n  function transfer(address payable _to, uint _amount, bytes memory _payload) public returns(bytes memory) {\r\n    require(getBalance() >= _amount, \"Insufficient funds.\");\r\n    if (msg.sender != owner) {\r\n      require(isAllowedToSend[msg.sender], \"You are not allowed to send funds.\");\r\n      require(userAllowance[msg.sender] < _amount, \"You are spending more than your allowance.\");\r\n      userAllowance[msg.sender] -= _amount;\r\n    }\r\n\r\n    (bool success, bytes memory returnData) = _to.call{value: _amount}(_payload);\r\n    require(success, \"Aborting, call was no successful.\");\r\n\r\n    return returnData;\r\n  }\r\n\r\n  function getBalance() public view returns(uint) {\r\n    return address(this).balance;\r\n  }\r\n\r\n  function setUserAllowance(address _userAddress, uint _allowanceAmount) public {\r\n    require(msg.sender == owner, \"Only the owner can set an allowance.\");\r\n    isAllowedToSend[_userAddress] = true;\r\n    userAllowance[_userAddress] = _allowanceAmount;\r\n  }\r\n}",
  "sourcePath": "C:\\Users\\jung_\\Desktop\\Coding\\web3-projects\\web3-development-learning\\contracts\\section-five\\SmartWallet.sol",
  "compiler": {
    "name": "solc",
    "version": "0.8.21+commit.d9974bed.Emscripten.clang"
  },
  "schemaVersion": "3.4.16",
  "updatedAt": "2024-08-04T19:41:25.114Z",
  "networkType": "ethereum",
  "devdoc": {
    "kind": "dev",
    "methods": {},
    "version": 1
  },
  "userdoc": {
    "kind": "user",
    "methods": {},
    "version": 1
  }
}