{
  "contractName": "SmartMoney",
  "abi": [
    {
      "inputs": [],
      "stateMutability": "nonpayable",
      "type": "constructor"
    },
    {
      "inputs": [],
      "name": "getContractBalance",
      "outputs": [
        {
          "internalType": "uint256",
          "name": "",
          "type": "uint256"
        }
      ],
      "stateMutability": "view",
      "type": "function"
    },
    {
      "inputs": [],
      "name": "depositEth",
      "outputs": [],
      "stateMutability": "payable",
      "type": "function"
    },
    {
      "inputs": [],
      "name": "withdrawEth",
      "outputs": [],
      "stateMutability": "nonpayable",
      "type": "function"
    },
    {
      "inputs": [
        {
          "internalType": "address payable",
          "name": "to",
          "type": "address"
        }
      ],
      "name": "withdrawToAddress",
      "outputs": [],
      "stateMutability": "nonpayable",
      "type": "function"
    }
  ],
  "bytecode": "0x608060405234801561000f575f80fd5b50335f806101000a81548173ffffffffffffffffffffffffffffffffffffffff021916908373ffffffffffffffffffffffffffffffffffffffff1602179055506102bd8061005c5f395ff3fe60806040526004361061003e575f3560e01c8063439370b1146100425780636f9fb98a1461004c578063a0ef91df14610076578063a92bd72c1461008c575b5f80fd5b61004a6100b4565b005b348015610057575f80fd5b506100606100b6565b60405161006d91906101e5565b60405180910390f35b348015610081575f80fd5b5061008a6100bd565b005b348015610097575f80fd5b506100b260048036038101906100ad919061025c565b61017f565b005b565b5f47905090565b5f8054906101000a900473ffffffffffffffffffffffffffffffffffffffff1673ffffffffffffffffffffffffffffffffffffffff163373ffffffffffffffffffffffffffffffffffffffff1614610113575f80fd5b5f8054906101000a900473ffffffffffffffffffffffffffffffffffffffff1673ffffffffffffffffffffffffffffffffffffffff166108fc6101546100b6565b90811502906040515f60405180830381858888f1935050505015801561017c573d5f803e3d5ffd5b50565b8073ffffffffffffffffffffffffffffffffffffffff166108fc6101a16100b6565b90811502906040515f60405180830381858888f193505050501580156101c9573d5f803e3d5ffd5b5050565b5f819050919050565b6101df816101cd565b82525050565b5f6020820190506101f85f8301846101d6565b92915050565b5f80fd5b5f73ffffffffffffffffffffffffffffffffffffffff82169050919050565b5f61022b82610202565b9050919050565b61023b81610221565b8114610245575f80fd5b50565b5f8135905061025681610232565b92915050565b5f60208284031215610271576102706101fe565b5b5f61027e84828501610248565b9150509291505056fea264697066735822122079d730ab502f3c742de8886b836a86168cf71bbbed76a436bdeefea1d7b00c2c64736f6c63430008150033",
  "immutableReferences": {},
  "source": "// SPDX-License-Identifier: SEE LICENSE IN LICENSE\r\npragma solidity ^0.8.14;\r\n\r\ncontract SmartMoney {\r\n  address owner;\r\n  string fallbackMsg;\r\n\r\n  constructor() {\r\n    owner = msg.sender;\r\n  }\r\n\r\n  function getContractBalance() public view returns(uint) {\r\n    return address(this).balance; \r\n  }\r\n\r\n  function depositEth() public payable {}\r\n\r\n  function withdrawEth() public {\r\n    require(msg.sender == owner);\r\n    payable(owner).transfer(getContractBalance());\r\n  }\r\n\r\n  function withdrawToAddress(address payable to) public {\r\n    to.transfer(getContractBalance());\r\n  }\r\n}",
  "sourcePath": "C:\\Users\\jung_\\Desktop\\Coding\\web3-projects\\web3-development-learning\\contracts\\section-4\\SmartMoney.sol",
  "compiler": {
    "name": "solc",
    "version": "0.8.21+commit.d9974bed.Emscripten.clang"
  },
  "schemaVersion": "3.4.16",
  "updatedAt": "2024-08-05T15:44:22.652Z",
  "devdoc": {
    "kind": "dev",
    "methods": {},
    "version": 1
  },
  "userdoc": {
    "kind": "user",
    "methods": {},
    "version": 1
  }
}