{
  "contractName": "Strings",
  "abi": [
    {
      "inputs": [],
      "name": "myBytes",
      "outputs": [
        {
          "internalType": "bytes",
          "name": "",
          "type": "bytes"
        }
      ],
      "stateMutability": "view",
      "type": "function"
    },
    {
      "inputs": [],
      "name": "myString",
      "outputs": [
        {
          "internalType": "string",
          "name": "",
          "type": "string"
        }
      ],
      "stateMutability": "view",
      "type": "function"
    },
    {
      "inputs": [
        {
          "internalType": "string",
          "name": "_myString",
          "type": "string"
        }
      ],
      "name": "setMyString",
      "outputs": [],
      "stateMutability": "nonpayable",
      "type": "function"
    },
    {
      "inputs": [
        {
          "internalType": "string",
          "name": "_stringOne",
          "type": "string"
        },
        {
          "internalType": "string",
          "name": "_stringTwo",
          "type": "string"
        }
      ],
      "name": "compareTwoStrings",
      "outputs": [
        {
          "internalType": "bool",
          "name": "",
          "type": "bool"
        }
      ],
      "stateMutability": "pure",
      "type": "function"
    }
  ],
  "bytecode": "0x60806040526040518060400160405280600b81526020017f68656c6c6f20776f726c640000000000000000000000000000000000000000008152505f908162000049919062000308565b506040518060400160405280600b81526020017f68656c6c6f20776f726c64000000000000000000000000000000000000000000815250600190816200009091906200044e565b503480156200009d575f80fd5b5062000532565b5f81519050919050565b7f4e487b71000000000000000000000000000000000000000000000000000000005f52604160045260245ffd5b7f4e487b71000000000000000000000000000000000000000000000000000000005f52602260045260245ffd5b5f60028204905060018216806200012057607f821691505b602082108103620001365762000135620000db565b5b50919050565b5f819050815f5260205f209050919050565b5f6020601f8301049050919050565b5f82821b905092915050565b5f600883026200019a7fffffffffffffffffffffffffffffffffffffffffffffffffffffffffffffffff826200015d565b620001a686836200015d565b95508019841693508086168417925050509392505050565b5f819050919050565b5f819050919050565b5f620001f0620001ea620001e484620001be565b620001c7565b620001be565b9050919050565b5f819050919050565b6200020b83620001d0565b620002236200021a82620001f7565b84845462000169565b825550505050565b5f90565b620002396200022b565b6200024681848462000200565b505050565b5b818110156200026d57620002615f826200022f565b6001810190506200024c565b5050565b601f821115620002bc5762000286816200013c565b62000291846200014e565b81016020851015620002a1578190505b620002b9620002b0856200014e565b8301826200024b565b50505b505050565b5f82821c905092915050565b5f620002de5f1984600802620002c1565b1980831691505092915050565b5f620002f88383620002cd565b9150826002028217905092915050565b6200031382620000a4565b67ffffffffffffffff8111156200032f576200032e620000ae565b5b6200033b825462000108565b6200034882828562000271565b5f60209050601f8311600181146200037e575f841562000369578287015190505b620003758582620002eb565b865550620003e4565b601f1984166200038e866200013c565b5f5b82811015620003b75784890151825560018201915060208501945060208101905062000390565b86831015620003d75784890151620003d3601f891682620002cd565b8355505b6001600288020188555050505b505050505050565b5f819050815f5260205f209050919050565b601f82111562000449576200041381620003ec565b6200041e846200014e565b810160208510156200042e578190505b620004466200043d856200014e565b8301826200024b565b50505b505050565b6200045982620000a4565b67ffffffffffffffff811115620004755762000474620000ae565b5b62000481825462000108565b6200048e828285620003fe565b5f60209050601f831160018114620004c4575f8415620004af578287015190505b620004bb8582620002eb565b8655506200052a565b601f198416620004d486620003ec565b5f5b82811015620004fd57848901518255600182019150602085019450602081019050620004d6565b868310156200051d578489015162000519601f891682620002cd565b8355505b6001600288020188555050505b505050505050565b6108f880620005405f395ff3fe608060405234801561000f575f80fd5b506004361061004a575f3560e01c8063492bfa181461004e578063712f46021461006c578063821805681461008a578063ef01a9a8146100a6575b5f80fd5b6100566100d6565b60405161006391906102e1565b60405180910390f35b610074610161565b6040516100819190610353565b60405180910390f35b6100a4600480360381019061009f91906104b0565b6101ed565b005b6100c060048036038101906100bb91906104f7565b6101ff565b6040516100cd9190610587565b60405180910390f35b5f80546100e2906105cd565b80601f016020809104026020016040519081016040528092919081815260200182805461010e906105cd565b80156101595780601f1061013057610100808354040283529160200191610159565b820191905f5260205f20905b81548152906001019060200180831161013c57829003601f168201915b505050505081565b6001805461016e906105cd565b80601f016020809104026020016040519081016040528092919081815260200182805461019a906105cd565b80156101e55780601f106101bc576101008083540402835291602001916101e5565b820191905f5260205f20905b8154815290600101906020018083116101c857829003601f168201915b505050505081565b805f90816101fb91906107a3565b5050565b5f8160405160200161021191906108ac565b604051602081830303815290604052805190602001208360405160200161023891906108ac565b6040516020818303038152906040528051906020012014905092915050565b5f81519050919050565b5f82825260208201905092915050565b5f5b8381101561028e578082015181840152602081019050610273565b5f8484015250505050565b5f601f19601f8301169050919050565b5f6102b382610257565b6102bd8185610261565b93506102cd818560208601610271565b6102d681610299565b840191505092915050565b5f6020820190508181035f8301526102f981846102a9565b905092915050565b5f81519050919050565b5f82825260208201905092915050565b5f61032582610301565b61032f818561030b565b935061033f818560208601610271565b61034881610299565b840191505092915050565b5f6020820190508181035f83015261036b818461031b565b905092915050565b5f604051905090565b5f80fd5b5f80fd5b5f80fd5b5f80fd5b7f4e487b71000000000000000000000000000000000000000000000000000000005f52604160045260245ffd5b6103c282610299565b810181811067ffffffffffffffff821117156103e1576103e061038c565b5b80604052505050565b5f6103f3610373565b90506103ff82826103b9565b919050565b5f67ffffffffffffffff82111561041e5761041d61038c565b5b61042782610299565b9050602081019050919050565b828183375f83830152505050565b5f61045461044f84610404565b6103ea565b9050828152602081018484840111156104705761046f610388565b5b61047b848285610434565b509392505050565b5f82601f83011261049757610496610384565b5b81356104a7848260208601610442565b91505092915050565b5f602082840312156104c5576104c461037c565b5b5f82013567ffffffffffffffff8111156104e2576104e1610380565b5b6104ee84828501610483565b91505092915050565b5f806040838503121561050d5761050c61037c565b5b5f83013567ffffffffffffffff81111561052a57610529610380565b5b61053685828601610483565b925050602083013567ffffffffffffffff81111561055757610556610380565b5b61056385828601610483565b9150509250929050565b5f8115159050919050565b6105818161056d565b82525050565b5f60208201905061059a5f830184610578565b92915050565b7f4e487b71000000000000000000000000000000000000000000000000000000005f52602260045260245ffd5b5f60028204905060018216806105e457607f821691505b6020821081036105f7576105f66105a0565b5b50919050565b5f819050815f5260205f209050919050565b5f6020601f8301049050919050565b5f82821b905092915050565b5f600883026106597fffffffffffffffffffffffffffffffffffffffffffffffffffffffffffffffff8261061e565b610663868361061e565b95508019841693508086168417925050509392505050565b5f819050919050565b5f819050919050565b5f6106a76106a261069d8461067b565b610684565b61067b565b9050919050565b5f819050919050565b6106c08361068d565b6106d46106cc826106ae565b84845461062a565b825550505050565b5f90565b6106e86106dc565b6106f38184846106b7565b505050565b5b818110156107165761070b5f826106e0565b6001810190506106f9565b5050565b601f82111561075b5761072c816105fd565b6107358461060f565b81016020851015610744578190505b6107586107508561060f565b8301826106f8565b50505b505050565b5f82821c905092915050565b5f61077b5f1984600802610760565b1980831691505092915050565b5f610793838361076c565b9150826002028217905092915050565b6107ac82610257565b67ffffffffffffffff8111156107c5576107c461038c565b5b6107cf82546105cd565b6107da82828561071a565b5f60209050601f83116001811461080b575f84156107f9578287015190505b6108038582610788565b86555061086a565b601f198416610819866105fd565b5f5b828110156108405784890151825560018201915060208501945060208101905061081b565b8683101561085d5784890151610859601f89168261076c565b8355505b6001600288020188555050505b505050505050565b5f81905092915050565b5f61088682610257565b6108908185610872565b93506108a0818560208601610271565b80840191505092915050565b5f6108b7828461087c565b91508190509291505056fea26469706673582212209f922a3ac70f46e1fd150bb7bac9569ccd35da2799e9a3e48d4dfb35a90cdd8d64736f6c63430008150033",
  "immutableReferences": {},
  "source": "// SPDX-License-Identifier: SEE LICENSE IN LICENSE\r\npragma solidity ^0.8.14;\r\n\r\ncontract Strings {\r\n  string public myString = \"hello world\";\r\n  bytes public myBytes = \"hello world\"; // preferred, bytes are safer.\r\n\r\n  function setMyString(string memory _myString) public {\r\n    myString = _myString;\r\n  }\r\n\r\n  function compareTwoStrings(string memory _stringOne, string memory _stringTwo) public pure returns(bool){\r\n    return keccak256(abi.encodePacked(_stringOne)) == keccak256(abi.encodePacked(_stringTwo));\r\n  }\r\n}",
  "sourcePath": "C:\\Users\\jung_\\Desktop\\Coding\\web3-projects\\web3-development-learning\\contracts\\section-three\\Strings.sol",
  "compiler": {
    "name": "solc",
    "version": "0.8.21+commit.d9974bed.Emscripten.clang"
  },
  "schemaVersion": "3.4.16",
  "updatedAt": "2024-08-05T14:18:50.830Z",
  "networkType": "ethereum",
  "devdoc": {
    "kind": "dev",
    "methods": {},
    "version": 1
  },
  "userdoc": {
    "kind": "user",
    "methods": {},
    "version": 1
  }
}