{
  "contractName": "Struct",
  "abi": [
    {
      "inputs": [],
      "name": "payment",
      "outputs": [
        {
          "internalType": "address",
          "name": "from",
          "type": "address"
        },
        {
          "internalType": "uint256",
          "name": "amount",
          "type": "uint256"
        }
      ],
      "stateMutability": "view",
      "type": "function"
    },
    {
      "inputs": [],
      "name": "payContract",
      "outputs": [],
      "stateMutability": "payable",
      "type": "function"
    }
  ],
  "bytecode": "0x608060405234801561000f575f80fd5b506101908061001d5f395ff3fe608060405260043610610028575f3560e01c806342f6487a1461002c578063ecb0b86214610057575b5f80fd5b348015610037575f80fd5b50610040610061565b60405161004e929190610133565b60405180910390f35b61005f610090565b005b5f805f015f9054906101000a900473ffffffffffffffffffffffffffffffffffffffff16908060010154905082565b335f80015f6101000a81548173ffffffffffffffffffffffffffffffffffffffff021916908373ffffffffffffffffffffffffffffffffffffffff160217905550345f60010181905550565b5f73ffffffffffffffffffffffffffffffffffffffff82169050919050565b5f610105826100dc565b9050919050565b610115816100fb565b82525050565b5f819050919050565b61012d8161011b565b82525050565b5f6040820190506101465f83018561010c565b6101536020830184610124565b939250505056fea26469706673582212200c4bd81ed9906daa75d8dcd0149cfbad02d517a773cb972c35ee18e2d9cd038864736f6c63430008150033",
  "immutableReferences": {},
  "source": "// SPDX-License-Identifier: SEE LICENSE IN LICENSE\r\npragma solidity ^0.8.14;\r\n\r\n\r\n\r\ncontract Struct {\r\n  struct PaymentReceived {\r\n    address from;\r\n    uint amount;\r\n  }\r\n\r\n  PaymentReceived public payment;\r\n\r\n  function payContract() public payable {\r\n    payment.from = msg.sender;\r\n    payment.amount = msg.value;\r\n  }\r\n}",
  "sourcePath": "C:\\Users\\jung_\\Desktop\\Coding\\web3-projects\\web3-development-learning\\contracts\\section-5\\Struct.sol",
  "compiler": {
    "name": "solc",
    "version": "0.8.21+commit.d9974bed.Emscripten.clang"
  },
  "schemaVersion": "3.4.16",
  "updatedAt": "2024-08-06T16:12:30.353Z",
  "devdoc": {
    "kind": "dev",
    "methods": {},
    "version": 1
  },
  "userdoc": {
    "kind": "user",
    "methods": {},
    "version": 1
  }
}