{
  "contractName": "Test",
  "abi": [
    {
      "anonymous": false,
      "inputs": [
        {
          "indexed": false,
          "internalType": "bytes",
          "name": "lowLevelData",
          "type": "bytes"
        }
      ],
      "name": "ErrorLogBytes",
      "type": "event"
    },
    {
      "anonymous": false,
      "inputs": [
        {
          "indexed": false,
          "internalType": "uint256",
          "name": "code",
          "type": "uint256"
        }
      ],
      "name": "ErrorLogCode",
      "type": "event"
    },
    {
      "anonymous": false,
      "inputs": [
        {
          "indexed": false,
          "internalType": "string",
          "name": "reason",
          "type": "string"
        }
      ],
      "name": "ErrorLogging",
      "type": "event"
    },
    {
      "inputs": [],
      "name": "bFunction",
      "outputs": [],
      "stateMutability": "nonpayable",
      "type": "function"
    }
  ],
  "bytecode": "0x608060405234801561000f575f80fd5b506105e88061001d5f395ff3fe608060405234801561000f575f80fd5b5060043610610029575f3560e01c80636e5bd9821461002d575b5f80fd5b610035610037565b005b5f604051610044906101e9565b604051809103905ff08015801561005d573d5f803e3d5ffd5b5090508073ffffffffffffffffffffffffffffffffffffffff166339c117a46040518163ffffffff1660e01b81526004015f6040518083038186803b1580156100a4575f80fd5b505afa9250505080156100b5575060015b6101e5576100c1610202565b806308c379a00361011d57506100d5610298565b806100e05750610177565b7fdcbe72357183be3854887085e70fd914c4c1733a94106878f48e8ba069d8fabc8160405161010f91906103a1565b60405180910390a1506101e0565b634e487b71036101775761012f6103c1565b9061013a5750610177565b7f29b40167f3248a50a300e50f3ea6088477baca03aa8065424bd02d92d8b879708160405161016991906103f7565b60405180910390a1506101e0565b3d805f81146101a1576040519150601f19603f3d011682016040523d82523d5f602084013e6101a6565b606091505b507fca0c98a5e8f87f29ffdaadfa103d8e525236a2912c2caedb8aa606eb60041f10816040516101d69190610462565b60405180910390a1505b6101e6565b5b50565b6101308061048383390190565b5f8160e01c9050919050565b5f60033d111561021e5760045f803e61021b5f516101f6565b90505b90565b5f604051905090565b5f601f19601f8301169050919050565b7f4e487b71000000000000000000000000000000000000000000000000000000005f52604160045260245ffd5b6102708261022a565b810181811067ffffffffffffffff8211171561028f5761028e61023a565b5b80604052505050565b5f60443d10610324576102a9610221565b60043d036004823e80513d602482011167ffffffffffffffff821117156102d1575050610324565b808201805167ffffffffffffffff8111156102ef5750505050610324565b80602083010160043d03850181111561030c575050505050610324565b61031b82602001850186610267565b82955050505050505b90565b5f81519050919050565b5f82825260208201905092915050565b5f5b8381101561035e578082015181840152602081019050610343565b5f8484015250505050565b5f61037382610327565b61037d8185610331565b935061038d818560208601610341565b6103968161022a565b840191505092915050565b5f6020820190508181035f8301526103b98184610369565b905092915050565b5f8060233d11156103db57602060045f3e600191505f5190505b9091565b5f819050919050565b6103f1816103df565b82525050565b5f60208201905061040a5f8301846103e8565b92915050565b5f81519050919050565b5f82825260208201905092915050565b5f61043482610410565b61043e818561041a565b935061044e818560208601610341565b6104578161022a565b840191505092915050565b5f6020820190508181035f83015261047a818461042a565b90509291505056fe608060405234801561000f575f80fd5b506101138061001d5f395ff3fe6080604052348015600e575f80fd5b50600436106026575f3560e01c806339c117a414602a575b5f80fd5b60306032565b005b6040517fb94e62a100000000000000000000000000000000000000000000000000000000815260040160629060c1565b60405180910390fd5b5f82825260208201905092915050565b7f4e6f7420616c6c6f7765642e00000000000000000000000000000000000000005f82015250565b5f60ad600c83606b565b915060b682607b565b602082019050919050565b5f6020820190508181035f83015260d68160a3565b905091905056fea2646970667358221220d8cbaab9f2c758b21b2ea92b5bbcc0d5a2768cee0d26b0d347268f60be4d065264736f6c63430008150033a26469706673582212202257656303b0121ef302a85906a1690431c2f11ce17ac2192ff0266744f47be364736f6c63430008150033",
  "immutableReferences": {},
  "source": "// SPDX-License-Identifier: SEE LICENSE IN LICENSE\r\npragma solidity ^0.8.14;\r\n\r\ncontract TryCatch {\r\n  error NotAllowedError(string);\r\n  function aFunction() external pure {\r\n    // require(false, \"Error Message\");\r\n    // assert(false);\r\n    revert NotAllowedError(\"Not allowed.\");\r\n  }\r\n}\r\n\r\ncontract Test {\r\n  event ErrorLogging(string reason);\r\n  event ErrorLogCode(uint code);\r\n  event ErrorLogBytes(bytes lowLevelData);\r\n\r\n  function bFunction() public {\r\n    TryCatch ex = new TryCatch();\r\n    \r\n    try ex.aFunction() {\r\n    } catch Error(string memory reason) { // * used for require statements.\r\n      emit ErrorLogging(reason);\r\n    } catch Panic(uint errorCode) { // * used for assert statements.\r\n      emit ErrorLogCode(errorCode);\r\n    } catch(bytes memory lowLevelData) { // * used for custom errors.\r\n      emit ErrorLogBytes(lowLevelData); \r\n    }\r\n  }\r\n}",
  "sourcePath": "C:\\Users\\jung_\\Desktop\\Coding\\web3-projects\\web3-development-learning\\contracts\\section-5\\TryCatch.sol",
  "compiler": {
    "name": "solc",
    "version": "0.8.21+commit.d9974bed.Emscripten.clang"
  },
  "schemaVersion": "3.4.16",
  "updatedAt": "2024-08-05T15:44:22.673Z",
  "devdoc": {
    "kind": "dev",
    "methods": {},
    "version": 1
  },
  "userdoc": {
    "kind": "user",
    "methods": {},
    "version": 1
  }
}