{
  "contractName": "TokenSale",
  "abi": [
    {
      "inputs": [
        {
          "internalType": "address",
          "name": "_token",
          "type": "address"
        }
      ],
      "stateMutability": "nonpayable",
      "type": "constructor"
    },
    {
      "inputs": [],
      "name": "token",
      "outputs": [
        {
          "internalType": "contract _ERC20",
          "name": "",
          "type": "address"
        }
      ],
      "stateMutability": "view",
      "type": "function",
      "constant": true
    },
    {
      "inputs": [],
      "name": "tokenOwner",
      "outputs": [
        {
          "internalType": "address",
          "name": "",
          "type": "address"
        }
      ],
      "stateMutability": "view",
      "type": "function",
      "constant": true
    },
    {
      "inputs": [],
      "name": "tokenPriceInWei",
      "outputs": [
        {
          "internalType": "uint256",
          "name": "",
          "type": "uint256"
        }
      ],
      "stateMutability": "view",
      "type": "function",
      "constant": true
    },
    {
      "inputs": [],
      "name": "purchaseCoffee",
      "outputs": [],
      "stateMutability": "payable",
      "type": "function",
      "payable": true
    }
  ],
  "bytecode": "0x6080604052670de0b6b3a764000060025534801561001b575f80fd5b50604051610815380380610815833981810160405281019061003d9190610120565b3360015f6101000a81548173ffffffffffffffffffffffffffffffffffffffff021916908373ffffffffffffffffffffffffffffffffffffffff160217905550805f806101000a81548173ffffffffffffffffffffffffffffffffffffffff021916908373ffffffffffffffffffffffffffffffffffffffff1602179055505061014b565b5f80fd5b5f73ffffffffffffffffffffffffffffffffffffffff82169050919050565b5f6100ef826100c6565b9050919050565b6100ff816100e5565b8114610109575f80fd5b50565b5f8151905061011a816100f6565b92915050565b5f60208284031215610135576101346100c2565b5b5f6101428482850161010c565b91505092915050565b6106bd806101585f395ff3fe60806040526004361061003e575f3560e01c80632f8de81014610042578063a3e676101461006c578063dfa5a25d14610096578063fc0c546a146100a0575b5f80fd5b34801561004d575f80fd5b506100566100ca565b604051610063919061033e565b60405180910390f35b348015610077575f80fd5b506100806100d0565b60405161008d9190610396565b60405180910390f35b61009e6100f5565b005b3480156100ab575f80fd5b506100b4610303565b6040516100c1919061040a565b60405180910390f35b60025481565b60015f9054906101000a900473ffffffffffffffffffffffffffffffffffffffff1681565b60025434101561013a576040517f08c379a00000000000000000000000000000000000000000000000000000000081526004016101319061047d565b60405180910390fd5b5f6002543461014991906104f5565b90505f6002548261015a9190610525565b346101659190610566565b90505f8054906101000a900473ffffffffffffffffffffffffffffffffffffffff1673ffffffffffffffffffffffffffffffffffffffff166323b872dd60015f9054906101000a900473ffffffffffffffffffffffffffffffffffffffff16335f8054906101000a900473ffffffffffffffffffffffffffffffffffffffff1673ffffffffffffffffffffffffffffffffffffffff1663a60dc38a876040518263ffffffff1660e01b815260040161021d919061033e565b602060405180830381865afa158015610238573d5f803e3d5ffd5b505050506040513d601f19601f8201168201806040525081019061025c91906105c7565b6040518463ffffffff1660e01b815260040161027a939291906105f2565b6020604051808303815f875af1158015610296573d5f803e3d5ffd5b505050506040513d601f19601f820116820180604052508101906102ba919061065c565b503373ffffffffffffffffffffffffffffffffffffffff166108fc8290811502906040515f60405180830381858888f193505050501580156102fe573d5f803e3d5ffd5b505050565b5f8054906101000a900473ffffffffffffffffffffffffffffffffffffffff1681565b5f819050919050565b61033881610326565b82525050565b5f6020820190506103515f83018461032f565b92915050565b5f73ffffffffffffffffffffffffffffffffffffffff82169050919050565b5f61038082610357565b9050919050565b61039081610376565b82525050565b5f6020820190506103a95f830184610387565b92915050565b5f819050919050565b5f6103d26103cd6103c884610357565b6103af565b610357565b9050919050565b5f6103e3826103b8565b9050919050565b5f6103f4826103d9565b9050919050565b610404816103ea565b82525050565b5f60208201905061041d5f8301846103fb565b92915050565b5f82825260208201905092915050565b7f4e6f7420656e6f756768206d6f6e65792073656e742e000000000000000000005f82015250565b5f610467601683610423565b915061047282610433565b602082019050919050565b5f6020820190508181035f8301526104948161045b565b9050919050565b7f4e487b71000000000000000000000000000000000000000000000000000000005f52601260045260245ffd5b7f4e487b71000000000000000000000000000000000000000000000000000000005f52601160045260245ffd5b5f6104ff82610326565b915061050a83610326565b92508261051a5761051961049b565b5b828204905092915050565b5f61052f82610326565b915061053a83610326565b925082820261054881610326565b9150828204841483151761055f5761055e6104c8565b5b5092915050565b5f61057082610326565b915061057b83610326565b9250828203905081811115610593576105926104c8565b5b92915050565b5f80fd5b6105a681610326565b81146105b0575f80fd5b50565b5f815190506105c18161059d565b92915050565b5f602082840312156105dc576105db610599565b5b5f6105e9848285016105b3565b91505092915050565b5f6060820190506106055f830186610387565b6106126020830185610387565b61061f604083018461032f565b949350505050565b5f8115159050919050565b61063b81610627565b8114610645575f80fd5b50565b5f8151905061065681610632565b92915050565b5f6020828403121561067157610670610599565b5b5f61067e84828501610648565b9150509291505056fea2646970667358221220ceb69d51a21b9f145360ffcd86dcf29fc9a291d126a34c26db609c71cf3d816964736f6c63430008150033",
  "immutableReferences": {},
  "source": "// SPDX-License-Identifier: SEE LICENSE IN LICENSE\r\npragma solidity ^0.8.16;\r\n\r\nabstract contract _ERC20 {\r\n  function decimals() public virtual view returns (uint8);\r\n  function transferFrom(address _from, address _to, uint256 _value) public virtual returns (bool success);\r\n  function convertToWei(uint amount) public virtual view returns (uint256);\r\n}\r\n\r\ncontract TokenSale {\r\n  _ERC20 public token;\r\n  address public tokenOwner;\r\n\r\n  uint public tokenPriceInWei = 1 ether;\r\n\r\n  constructor(address _token) {\r\n    tokenOwner = msg.sender;\r\n    token = _ERC20(_token);\r\n  }\r\n\r\n  function purchaseCoffee() public payable {\r\n    require(msg.value >= tokenPriceInWei, \"Not enough money sent.\");\r\n    uint tokensToTransfer = msg.value / tokenPriceInWei;\r\n    uint remainder = msg.value - tokensToTransfer * tokenPriceInWei;\r\n    token.transferFrom(tokenOwner, msg.sender, token.convertToWei(tokensToTransfer));\r\n    payable(msg.sender).transfer(remainder);\r\n  }\r\n}",
  "sourcePath": "C:\\Users\\jung_\\Desktop\\Coding\\web3-projects\\web3-development-learning\\contracts\\section-6\\TokenSale.sol",
  "compiler": {
    "name": "solc",
    "version": "0.8.21+commit.d9974bed.Emscripten.clang"
  },
  "schemaVersion": "3.4.16",
  "updatedAt": "2024-08-05T19:35:26.035Z",
  "networkType": "ethereum",
  "devdoc": {
    "kind": "dev",
    "methods": {},
    "version": 1
  },
  "userdoc": {
    "kind": "user",
    "methods": {},
    "version": 1
  }
}