{
  "contractName": "TryCatch",
  "abi": [
    {
      "inputs": [
        {
          "internalType": "string",
          "name": "",
          "type": "string"
        }
      ],
      "name": "NotAllowedError",
      "type": "error"
    },
    {
      "inputs": [],
      "name": "aFunction",
      "outputs": [],
      "stateMutability": "pure",
      "type": "function"
    }
  ],
  "bytecode": "0x608060405234801561000f575f80fd5b506101138061001d5f395ff3fe6080604052348015600e575f80fd5b50600436106026575f3560e01c806339c117a414602a575b5f80fd5b60306032565b005b6040517fb94e62a100000000000000000000000000000000000000000000000000000000815260040160629060c1565b60405180910390fd5b5f82825260208201905092915050565b7f4e6f7420616c6c6f7765642e00000000000000000000000000000000000000005f82015250565b5f60ad600c83606b565b915060b682607b565b602082019050919050565b5f6020820190508181035f83015260d68160a3565b905091905056fea2646970667358221220d8cbaab9f2c758b21b2ea92b5bbcc0d5a2768cee0d26b0d347268f60be4d065264736f6c63430008150033",
  "immutableReferences": {},
  "source": "// SPDX-License-Identifier: SEE LICENSE IN LICENSE\r\npragma solidity ^0.8.14;\r\n\r\ncontract TryCatch {\r\n  error NotAllowedError(string);\r\n  function aFunction() external pure {\r\n    // require(false, \"Error Message\");\r\n    // assert(false);\r\n    revert NotAllowedError(\"Not allowed.\");\r\n  }\r\n}\r\n\r\ncontract Test {\r\n  event ErrorLogging(string reason);\r\n  event ErrorLogCode(uint code);\r\n  event ErrorLogBytes(bytes lowLevelData);\r\n\r\n  function bFunction() public {\r\n    TryCatch ex = new TryCatch();\r\n    \r\n    try ex.aFunction() {\r\n    } catch Error(string memory reason) { // * used for require statements.\r\n      emit ErrorLogging(reason);\r\n    } catch Panic(uint errorCode) { // * used for assert statements.\r\n      emit ErrorLogCode(errorCode);\r\n    } catch(bytes memory lowLevelData) { // * used for custom errors.\r\n      emit ErrorLogBytes(lowLevelData); \r\n    }\r\n  }\r\n}",
  "sourcePath": "C:\\Users\\jung_\\Desktop\\Coding\\web3-projects\\web3-development-learning\\contracts\\section-5\\TryCatch.sol",
  "compiler": {
    "name": "solc",
    "version": "0.8.21+commit.d9974bed.Emscripten.clang"
  },
  "schemaVersion": "3.4.16",
  "updatedAt": "2024-08-05T19:35:25.018Z",
  "devdoc": {
    "kind": "dev",
    "methods": {},
    "version": 1
  },
  "userdoc": {
    "kind": "user",
    "methods": {},
    "version": 1
  }
}