{
  "contractName": "Types",
  "abi": [
    {
      "inputs": [],
      "name": "myBool",
      "outputs": [
        {
          "internalType": "bool",
          "name": "",
          "type": "bool"
        }
      ],
      "stateMutability": "view",
      "type": "function"
    },
    {
      "inputs": [],
      "name": "myInt",
      "outputs": [
        {
          "internalType": "int256",
          "name": "",
          "type": "int256"
        }
      ],
      "stateMutability": "view",
      "type": "function"
    },
    {
      "inputs": [],
      "name": "myUint",
      "outputs": [
        {
          "internalType": "uint256",
          "name": "",
          "type": "uint256"
        }
      ],
      "stateMutability": "view",
      "type": "function"
    },
    {
      "inputs": [],
      "name": "smallUint",
      "outputs": [
        {
          "internalType": "uint8",
          "name": "",
          "type": "uint8"
        }
      ],
      "stateMutability": "view",
      "type": "function"
    },
    {
      "inputs": [
        {
          "internalType": "bool",
          "name": "_myBool",
          "type": "bool"
        }
      ],
      "name": "setBool",
      "outputs": [],
      "stateMutability": "nonpayable",
      "type": "function"
    },
    {
      "inputs": [
        {
          "internalType": "uint256",
          "name": "_myUint",
          "type": "uint256"
        }
      ],
      "name": "setMyUint",
      "outputs": [],
      "stateMutability": "nonpayable",
      "type": "function"
    },
    {
      "inputs": [],
      "name": "incrementUint",
      "outputs": [],
      "stateMutability": "nonpayable",
      "type": "function"
    },
    {
      "inputs": [],
      "name": "decrementInt",
      "outputs": [],
      "stateMutability": "nonpayable",
      "type": "function"
    }
  ],
  "bytecode": "0x60806040525f60025f6101000a81548160ff021916908360ff1602179055507ffffffffffffffffffffffffffffffffffffffffffffffffffffffffffffffff660035534801561004d575f80fd5b5061043c8061005b5f395ff3fe608060405234801561000f575f80fd5b5060043610610086575f3560e01c80632cb777a6116100595780632cb777a6146100ec5780636deecdbe1461010a5780638d5833cb14610128578063e492fd841461013257610086565b806306540f7e1461008a57806314bf43bd146100a85780631e26fd33146100b257806323626455146100ce575b5f80fd5b61009261014e565b60405161009f919061020b565b60405180910390f35b6100b0610154565b005b6100cc60048036038101906100c7919061025d565b61018d565b005b6100d66101a8565b6040516100e391906102a3565b60405180910390f35b6100f46101ba565b60405161010191906102d4565b60405180910390f35b6101126101c0565b60405161011f91906102fc565b60405180910390f35b6101306101d0565b005b61014c6004803603810190610147919061033f565b6101e9565b005b60015481565b60025f81819054906101000a900460ff168092919061017290610397565b91906101000a81548160ff021916908360ff16021790555050565b805f806101000a81548160ff02191690831515021790555050565b60025f9054906101000a900460ff1681565b60035481565b5f8054906101000a900460ff1681565b60035f8154809291906101e2906103bf565b9190505550565b8060018190555050565b5f819050919050565b610205816101f3565b82525050565b5f60208201905061021e5f8301846101fc565b92915050565b5f80fd5b5f8115159050919050565b61023c81610228565b8114610246575f80fd5b50565b5f8135905061025781610233565b92915050565b5f6020828403121561027257610271610224565b5b5f61027f84828501610249565b91505092915050565b5f60ff82169050919050565b61029d81610288565b82525050565b5f6020820190506102b65f830184610294565b92915050565b5f819050919050565b6102ce816102bc565b82525050565b5f6020820190506102e75f8301846102c5565b92915050565b6102f681610228565b82525050565b5f60208201905061030f5f8301846102ed565b92915050565b61031e816101f3565b8114610328575f80fd5b50565b5f8135905061033981610315565b92915050565b5f6020828403121561035457610353610224565b5b5f6103618482850161032b565b91505092915050565b7f4e487b71000000000000000000000000000000000000000000000000000000005f52601160045260245ffd5b5f6103a182610288565b915060ff82036103b4576103b361036a565b5b600182019050919050565b5f6103c9826102bc565b91507f800000000000000000000000000000000000000000000000000000000000000082036103fb576103fa61036a565b5b60018203905091905056fea26469706673582212206de3c6dd0a89fcd34b36537f7727606b41e70c68d6b7f087990ccb109577578364736f6c63430008150033",
  "immutableReferences": {},
  "source": "// SPDX-License-Identifier: MIT\r\npragma solidity ^0.8.0;\r\n\r\ncontract Types {\r\n\r\n  // BOOLEANS\r\n  bool public myBool;\r\n\r\n  function setBool(bool _myBool) public {\r\n    myBool = _myBool;\r\n  }\r\n\r\n  // UNSIGNED INTEGERS \r\n  uint public myUint;     // [0 -> (2^256)-1]\r\n  uint8 public smallUint = 0; // 0 -> 256;\r\n  int public myInt = -10; // -2^128 -> 2^128\r\n\r\n  function setMyUint(uint _myUint) public {\r\n    myUint = _myUint;\r\n  }\r\n  function incrementUint() public {\r\n    smallUint++;\r\n  }\r\n  function decrementInt() public {\r\n    myInt--;\r\n  }\r\n}",
  "sourcePath": "C:\\Users\\jung_\\Desktop\\Coding\\web3-projects\\web3-development-learning\\contracts\\section-three\\Types.sol",
  "compiler": {
    "name": "solc",
    "version": "0.8.21+commit.d9974bed.Emscripten.clang"
  },
  "schemaVersion": "3.4.16",
  "updatedAt": "2024-08-03T20:45:15.245Z",
  "devdoc": {
    "kind": "dev",
    "methods": {},
    "version": 1
  },
  "userdoc": {
    "kind": "user",
    "methods": {},
    "version": 1
  }
}