{
  "contractName": "ViewPure",
  "abi": [
    {
      "inputs": [],
      "name": "storageVariable",
      "outputs": [
        {
          "internalType": "uint256",
          "name": "",
          "type": "uint256"
        }
      ],
      "stateMutability": "view",
      "type": "function"
    },
    {
      "inputs": [],
      "name": "getMyStorageVariable",
      "outputs": [
        {
          "internalType": "uint256",
          "name": "",
          "type": "uint256"
        }
      ],
      "stateMutability": "view",
      "type": "function"
    },
    {
      "inputs": [
        {
          "internalType": "uint256",
          "name": "a",
          "type": "uint256"
        },
        {
          "internalType": "uint256",
          "name": "b",
          "type": "uint256"
        }
      ],
      "name": "getAddition",
      "outputs": [
        {
          "internalType": "uint256",
          "name": "",
          "type": "uint256"
        }
      ],
      "stateMutability": "pure",
      "type": "function"
    },
    {
      "inputs": [
        {
          "internalType": "uint256",
          "name": "_newVar",
          "type": "uint256"
        }
      ],
      "name": "setMyStorageVariable",
      "outputs": [
        {
          "internalType": "uint256",
          "name": "",
          "type": "uint256"
        }
      ],
      "stateMutability": "nonpayable",
      "type": "function"
    }
  ],
  "bytecode": "0x608060405234801561000f575f80fd5b506102798061001d5f395ff3fe608060405234801561000f575f80fd5b506004361061004a575f3560e01c806308b9e8501461004e5780635f6a36da1461007e5780637dbe33881461009c578063e48d59d9146100ba575b5f80fd5b61006860048036038101906100639190610152565b6100ea565b604051610075919061019f565b60405180910390f35b6100866100ff565b604051610093919061019f565b60405180910390f35b6100a4610107565b6040516100b1919061019f565b60405180910390f35b6100d460048036038101906100cf91906101b8565b61010c565b6040516100e1919061019f565b60405180910390f35b5f81836100f79190610210565b905092915050565b5f8054905090565b5f5481565b5f815f81905550819050919050565b5f80fd5b5f819050919050565b6101318161011f565b811461013b575f80fd5b50565b5f8135905061014c81610128565b92915050565b5f80604083850312156101685761016761011b565b5b5f6101758582860161013e565b92505060206101868582860161013e565b9150509250929050565b6101998161011f565b82525050565b5f6020820190506101b25f830184610190565b92915050565b5f602082840312156101cd576101cc61011b565b5b5f6101da8482850161013e565b91505092915050565b7f4e487b71000000000000000000000000000000000000000000000000000000005f52601160045260245ffd5b5f61021a8261011f565b91506102258361011f565b925082820190508082111561023d5761023c6101e3565b5b9291505056fea2646970667358221220f9cafff32bf2d775f61ff26d5f6e02aa1e079217d8e4f140624ba1937bf8a64664736f6c63430008150033",
  "immutableReferences": {},
  "source": "// SPDX-License-Identifier: SEE LICENSE IN LICENSE\r\npragma solidity ^0.8.14;\r\n\r\ncontract ViewPure {\r\n  uint public storageVariable;\r\n\r\n  function getMyStorageVariable() public view returns(uint) {\r\n    return storageVariable; // view can access variables in storage.\r\n  }\r\n\r\n  function getAddition(uint a, uint b) public pure returns(uint) {\r\n    return a + b; // pure cannot access variables in storage. \r\n  }\r\n  \r\n  function setMyStorageVariable(uint _newVar) public returns(uint) {\r\n    storageVariable = _newVar;\r\n    return _newVar; // ! WARNING: return values are typically used for contract to contract communication.\r\n  }\r\n}",
  "sourcePath": "C:\\Users\\jung_\\Desktop\\Coding\\web3-projects\\web3-development-learning\\contracts\\section-three\\ViewPure.sol",
  "compiler": {
    "name": "solc",
    "version": "0.8.21+commit.d9974bed.Emscripten.clang"
  },
  "schemaVersion": "3.4.16",
  "updatedAt": "2024-08-03T20:45:15.247Z",
  "devdoc": {
    "kind": "dev",
    "methods": {},
    "version": 1
  },
  "userdoc": {
    "kind": "user",
    "methods": {},
    "version": 1
  }
}