{
  "contractName": "WrapAround",
  "abi": [
    {
      "inputs": [],
      "name": "myUint",
      "outputs": [
        {
          "internalType": "uint256",
          "name": "",
          "type": "uint256"
        }
      ],
      "stateMutability": "view",
      "type": "function"
    },
    {
      "inputs": [],
      "name": "myUint8",
      "outputs": [
        {
          "internalType": "uint256",
          "name": "",
          "type": "uint256"
        }
      ],
      "stateMutability": "view",
      "type": "function"
    },
    {
      "inputs": [
        {
          "internalType": "uint256",
          "name": "_myUint",
          "type": "uint256"
        }
      ],
      "name": "setMyUint",
      "outputs": [],
      "stateMutability": "nonpayable",
      "type": "function"
    },
    {
      "inputs": [],
      "name": "incrementUint",
      "outputs": [],
      "stateMutability": "nonpayable",
      "type": "function"
    },
    {
      "inputs": [],
      "name": "decrementInt",
      "outputs": [],
      "stateMutability": "nonpayable",
      "type": "function"
    }
  ],
  "bytecode": "0x60806040526010600155348015610014575f80fd5b50610238806100225f395ff3fe608060405234801561000f575f80fd5b5060043610610055575f3560e01c806306540f7e1461005957806314bf43bd146100775780638d5833cb14610081578063e2a4b2af1461008b578063e492fd84146100a9575b5f80fd5b6100616100c5565b60405161006e919061011c565b60405180910390f35b61007f6100ca565b005b6100896100e2565b005b6100936100f5565b6040516100a0919061011c565b60405180910390f35b6100c360048036038101906100be9190610163565b6100fb565b005b5f5481565b5f808154809291906100db906101bb565b9190505550565b5f80815480929190600190039190505550565b60015481565b805f8190555050565b5f819050919050565b61011681610104565b82525050565b5f60208201905061012f5f83018461010d565b92915050565b5f80fd5b61014281610104565b811461014c575f80fd5b50565b5f8135905061015d81610139565b92915050565b5f6020828403121561017857610177610135565b5b5f6101858482850161014f565b91505092915050565b7f4e487b71000000000000000000000000000000000000000000000000000000005f52601160045260245ffd5b5f6101c582610104565b91507fffffffffffffffffffffffffffffffffffffffffffffffffffffffffffffffff82036101f7576101f661018e565b5b60018201905091905056fea26469706673582212207405d84ff831df427e4aa48933c9b96e7e60e37d55e75eb8464fec5edf11ca4264736f6c63430008150033",
  "immutableReferences": {},
  "source": "// SPDX-License-Identifier: SEE LICENSE IN LICENSE\r\npragma solidity ^0.8.14;\r\n\r\ncontract WrapAround {\r\n  uint256 public myUint;\r\n  uint public myUint8 = 2**4;\r\n\r\n  function setMyUint(uint _myUint) public {\r\n    myUint = _myUint;\r\n  }\r\n  function incrementUint() public {\r\n    myUint++;\r\n  }\r\n  function decrementInt() public {\r\n    unchecked {\r\n      myUint--;\r\n    }\r\n  }\r\n}",
  "sourcePath": "C:\\Users\\jung_\\Desktop\\Coding\\web3-projects\\web3-development-learning\\contracts\\section-three\\WrapAround.sol",
  "compiler": {
    "name": "solc",
    "version": "0.8.21+commit.d9974bed.Emscripten.clang"
  },
  "schemaVersion": "3.4.16",
  "updatedAt": "2024-08-05T14:18:50.828Z",
  "networkType": "ethereum",
  "devdoc": {
    "kind": "dev",
    "methods": {},
    "version": 1
  },
  "userdoc": {
    "kind": "user",
    "methods": {},
    "version": 1
  }
}